:02000004901159
:105300006F0040009712F36F9382C2D573905230B2
:105310007350003073504030930240007390227CF1
:105320000F00F00F9302C0007390327C0F00F00F5B
:1053300097E1EE8F9381C11917B1EE8F1301812C84
:1053400097D2EE8F938202AC1753080013030365C4
:105350000B30030097C3EE6F9383C3B863800302DF
:105360000B0083FF130303020B3003000B9082FF3B
:1053700093820202938303FEE34470FE97C2F26FAE
:105380009382425A176300001303C3890B30030052
:105390009743EF6F93830335638003020B0083FF12
:1053A000130303020B3003000B9082FF938202026F
:1053B000938303FEE34470FE97B2F26F938282C43C
:1053C00017030000130303240B3003009303004171
:1053D000638003020B0083FF130303020B300300FF
:1053E0000B9082FF93820202938303FEE34470FEDC
:1053F00097C2F26F9382821A17C3F26F130303529C
:10540000638A62009303000023A07200938242002B
:10541000E3CC62FE97B2F26F9382C2FF17B3F26FD2
:105420001303C310638A62009303000023A0720079
:1054300093824200E3CC62FE9762F36F938282BC58
:1054400017A3F36F130303F9638A62009303000049
:1054500023A0720093824200E3CC62FE97B2F26F07
:105460009382C20C170300001303835D97C3EE6F92
:10547000938343C0E38E03F6032E030023A0C201EF
:1054800093824200130343009383C3FFE34670FEFD
:10549000B762000073A00230731030009722010041
:0854A000938222F667800200EE
:1054A80000000000CAFED00D02000000000000004D
:1054B800627332316520312E302E31380000000001
:1054C80000000000000000000000000000000000D4
:1054D80000000000000000000000000000000000C4
:1054E800756E6B6E6F776E000000000000000000A4
:0854F8000000000000000000AC
:10560000000000000000000000000000000000009A
:10561000000000000000000000000000000000008A
:10562000000000000000000000000000000000007A
:105A10003A751290489611904A8A1190588A1190BE
:105A2000AC75129000801190B6751290169211907C
:0C5A30003A871190468F1190FC74129080
:105A3C0017430E90670023E017430E90670043E274
:105A4C0017430E906700831B17430E906700E350BB
:105A5C0017730D9067002317179312906700C3FC00
:105A6C00179312906700A3F11793129067006316B7
:105A7C00179312906700A315179312906700A3F069
:105A8C00179312906700E3EF17130F906700C3177B
:105A9C0017130F906700835417130F906700034E72
:105AAC006FA080460000000017130F906700E34CB6
:105ABC006FA0604C0000000017430F906700230399
:105ACC0017430F906700C3FD178312906700035FA5
:105ADC0017230F90670003F517330F90670043737C
:105AEC0017F312906700A322178312906700A35A32
:105AFC00178312906700635B178312906700635BD8
:105B0C0017F3129067006312178312906700E35526
:105B1C00178312906700C35417F31290670063FA4F
:105B2C0017F312906700A3F917F312906700E307BD
:105B3C0017F312906700430017F3129067002314B9
:105B4C0017430F906700030017430F906700E3FCA7
:105B5C0017430F906700430517430F90670023020C
:105B6C0017F31290670083FC17F30E90670063DF46
:105B7C0017F31290670003F517F312906700A3F662
:105B8C0017F31290670043F2179310906700234CA1
:105B9C00179310906700A34A179310906700A34ABD
:105BAC00179310906700C348179310906700632DEC
:105BBC00179310906700632D179310906700A32B19
:105BCC00179310906700632D179310906700833024
:105BDC0017A310906700C39D17A310906700239B19
:105BEC0017A310906700439D179310906700C36133
:105BFC0017931090670083646FA0602B0000000067
:105C0C0017130F906700E3D417130F90670003D599
:105C1C006FA0602A000000006FA060280000000048
:105C2C0017930D906700C34E17930D906700A34A0E
:105C3C006FA0C01E000000006FA0A022000000009A
:105C4C006FA060260000000017930D906700435171
:105C5C0017930D906700234D17130F906700E3DF28
:105C6C0017930D906700235117130F906700A3CF64
:105C7C0017130F90670083B117130F906700C3B20F
:105C8C0017130F906700A3B417430F906700C32836
:105C9C0017430F906700432617F31290670043E3F6
:105CAC006F900020000000006F90E01400000000D6
:105CBC001793109067008311179310906700E30BF4
:105CCC006F90805F000000006FA0200900000000B2
:105CDC006F903079000000006F80D037000000001A
:105CEC006F80902E000000006F80B0330000000029
:105CFC006F805034000000006F80F02E0000000018
:105D0C006F809030000000006F80B05300000000E6
:105D1C006F80B06B000000006F80504A00000000E4
:105D2C006F8090330000000017A31590670043FCB0
:105D3C0017530F906700A35D17530F906700435CD8
:105D4C0017530F906700435A17530F906700835AED
:105D5C0017530F906700635C17630F90670023C0A5
:105D6C0017630F90670023C417730F906700632F9E
:105D7C0017630F906700033F17630F906700A33DF5
:105D8C0017730F906700635017730F90670003171A
:105D9C0017730F906700231217730F906700A318E7
:105DAC0017830F906700432817830F9067006319C0
:105DBC0017730F906700237017730F906700C36100
:105DCC0017530F906700233F17931590670043EE0E
:105DDC0017530F906700833C17530F9067000335E0
:105DEC0017530F906700034217530F9067008331CE
:105DFC0017530F906700C32B17B30F9067006346C0
:105E0C0017B30F906700636917A30F90670023AE59
:105E1C0017B30F906700E36B17930F9067008337EE
:105E2C00179315906700031C17B30F906700834CF2
:105E3C0017A30F906700C3A317A30F90670023AAA3
:105E4C0017B30F906700E34617930F906700232B4F
:105E5C0017A30F906700C3AF17B30F906700A3A9E8
:105E6C0017A30F906700E31517930F906700833308
:105E7C0017930F906700A32A17F31290670063C65D
:105E8C0017A31190670063AB17A311906700E3A4ED
:105E9C0017A31190670043C1179311906700A35487
:105EAC0017931190670043791793119067008376CD
:105EBC001793119067004352178312906700036287
:105ECC00179312906700839F178312906700E3600B
:105EDC00178312906700A360179312906700C38218
:105EEC00178312906700C35F178312906700635F7C
:105EFC00179312906700039F179312906700E38B20
:105F0C00179312906700A3811793129067008389EF
:105F1C00178312906700637F179312906700438773
:105F2C00179312906700A39B1793129067006391CD
:105F3C00179312906700439B179312906700C387C7
:105F4C00178312906700C35A178312906700635A25
:105F5C001783129067000359179312906700A3A13F
:105F6C00179312906700639F17931290670063A0BA
:105F7C00179312906700839F179312906700C3D6F4
:105F8C00179312906700639F17931290670083D149
:105F9C00179312906700C3D217931290670063C4D3
:105FAC0017931290670023C417931290670023C3B2
:105FBC0017931290670063C217931290670023D750
:105FCC00179312906700A399179312906700E3C17F
:105FDC0017931290670023C0179312906700E39AEF
:105FEC00179312906700C3981793129067006397EA
:105FFC00179312906700439717931290670083963C
:10600C00179312906700A394179312906700A394B0
:10601C00178312906700234A178312906700234A54
:10602C00178312906700A34A178312906700634985
:10603C001783129067006349178312906700A34976
:10604C0017931290670003E817931290670003E808
:10605C00179312906700E311179312906700E311E6
:10606C001793159067004382176312906700030A19
:10607C00178312906700839F178312906700C39059
:10608C00178312906700C39C17831290670023A993
:10609C0017430F906700A34417430F906700233FEB
:1060AC0017430F906700033D175312906700E313DB
:1060BC00177312906700433A177312906700A3335B
:1060CC00177312906700A33D177312906700E33BA0
:1060DC0017431290670043AA174312906700834539
:1060EC0017831290670083BF17431290670043EB2E
:1060FC001773129067002343177312906700834540
:10610C0017831290670023AC17831290670023AAA1
:10611C00177312906700C378178312906700A383DC
:10612C0017431290670023A617430F90670083381C
:10613C0017831290670003A117631290670063899D
:10614C00175312906700030F175312906700C3D7B1
:10615C0017531290670003CE17831290670003B396
:10616C00175312906700E3DC175312906700C33E7D
:10617C00175312906700E3D81753129067008331BE
:10618C001773129067002376177312906700A3742D
:10619C00177312906700A3781773129067006376D9
:1061AC001773129067006379177312906700E330CE
:1061BC001773129067006335176312906700033DE5
:1061CC00176312906700033D174312906700A39A60
:1061DC0017430F90670043D917430F90670023D8DC
:1061EC0017430F90670083D917430F90670043D86C
:1061FC0017430F90670003DA17430F906700C3D85B
:10620C0017430F90670023D517430F90670003D4F3
:10621C00179311906700A3636F90304E000000003D
:10622C00179312906700A3CB17931290670063D556
:10623C0017931290670063D4179312906700E3D4FE
:10624C0017931290670023CC179312906700E3D03A
:10625C00179312906700E3D117931290670063CAEB
:10626C0017931290670003CA17931290670063CFBD
:10627C0017931290670063CF17931290670063CD4A
:10628C00179312906700E3CB179312906700E3CA41
:10629C00179312906700E3C917931290670043C7D6
:1062AC00179312906700C3C217931290670063CEC6
:1062BC0017931290670063CE179312906700C3C4B4
:1062CC0017931290670083C417931290670023C42E
:1062DC00179312906700E3C3179312906700E3C300
:1062EC0017931290670043D417931290670063C3FF
:1062FC0017931290670023D017931290670063CA0C
:10630C0017931290670063CA17631290670003A378
:10631C0017631290670023D717631290670043C965
:10632C0017631290670003DC1763129067008354A5
:10633C00177312906700C302176312906700236AE9
:10634C001763129067008374177312906700638B46
:10635C00177312906700C3A8177312906700A3B746
:10636C0017731290670003C217E312906700E3766D
:10637C0017731290670043B0179310906700637403
:10638C0017B3109067004377179310906700A372B0
:10639C00179310906700436E179310906700836BF0
:1063AC00179310906700836C179310906700436BE2
:1063BC001793109067008368179310906700C36859
:1063CC0017B3109067000379179310906700436C14
:1063DC0017A310906700038917A310906700E3754B
:1063EC0017A310906700237617B3109067000378FB
:1063FC00179310906700036917C310906700E3535D
:10640C0017C31090670043C717C31090670003C6EB
:10641C0017C310906700634C17D31090670043624A
:10642C0017D310906700432E17D310906700E3D951
:10643C0017C3109067008361178311906700C3CE58
:10644C00178311906700A3EB178311906700231437
:10645C00178311906700234317831190670003D3B0
:10646C0017E310906700437C1703119067002341DA
:10647C0017F310906700838817F310906700238B35
:10648C00170311906700032B17E310906700A329E3
:10649C0017E310906700C36217E310906700436C1A
:1064AC0017E3109067000372170311906700232FF6
:1064BC00170311906700E30417E31090670083D370
:1064CC0017E3109067000311170311906700E32D79
:1064DC0017031190670063FC17E30E906700230EFF
:1064EC0017E30E906700C31017E30E906700A31319
:1064FC0017E30E906700C31617E30E906700231A7C
:10650C0017E30E906700C31D17E30E9067008335E9
:10651C006F401027000000006F40F02F00000000BB
:10652C0017630D90670023746F40105A0000000031
:10653C006F00D011000000006F0070100000000010
:10654C0017E30E90670023C517330F906700C3EB5A
:10655C0017330F90670023FA17330F90670043FA35
:10656C0017330F90670063F117330F90670023E91F
:10657C0017330F90670063F717330F90670023F6FC
:10658C0017330F90670003F517330F906700E3F391
:10659C0017330F906700A30417330F90670063073E
:1065AC00179311906700835417330F90670083186B
:1065BC0017330F906700030D17E312906700835693
:1065CC00177312906700436417A311906700E3924E
:1065DC0017A311906700039B17A311906700E38624
:1065EC0017931290670043BA17931290670043B940
:1065FC00179312906700E3B817931290670083B853
:10660C00179312906700A3B76F40905500000000DD
:10661C006F40F0180000000017931190670003E51D
:10662C0017931190670003F817931190670023EDEF
:10663C00179311906700C3F86F40B013000000006F
:10664C0017330F906700430017E312906700834ED7
:10665C0017E312906700634C17E312906700434DE9
:10666C002C0107000700170005020200FFFF0000C5
:10667C0001000000010000000100BC0DAC0D2C0E4F
:10668C00CC0D1000540BD40ACC0F2C0E0800282271
:10669C00CC192805D02E04010808B0260401CC0F13
:1066AC0007000C1B040110000C181000140A100039
:1066BC00740AD40B1000D40B540B0800682405008A
:1066CC00E4330401004006010A00000503000A003F
:1066DC000A00000500FC100732FC064C08000A00FA
:1066EC00020002000A00000060EA00001400000032
:1066FC00409C00000A00010001009700080A0000FD
:10670C0000000000587E1190FFFFFFFF000000000A
:10671C00286E696C29000000286E756C6C290000CD
:10672C00280000006E000000750000006C000000E6
:10673C006C000000290000000000000000000000B8
:10674C00C83E0300F63D030076310300BC9316905F
:10675C00B6931690CA1E0300421F0300E82C0300D8
:10676C00C2931690D4931690C6931690CC93169011
:10677C00010000000000000000000000000000000C
:08678C0000000087000000007E
:1067940000010000AE16139001020000C21613900F
:1067A40002030000D016139003020000D2161390C7
:1067B4000204000078191390040500005019139086
:1067C40005040000521913900402000000000000A8
:1067D40002000000DC1613901C2500009411000038
:1067E40000000000000000000000000000000000A5
:1067F4000000000000000000000000000000000095
:106804000000000000000000000000000000000084
:1068140000000000000000004CAE04000000000076
:106824000000000000000000000000000000000064
:106834000000000000000000000000000000000054
:106844000000000000008000000000087A0C000036
:10685400EEEF332B1D1CA2000D0000000001000010
:10686400A27C0100AD7C010001010000A27C0100BA
:10687400AD7C0100FFFFFF000000000000000000ED
:10688400FFFFFF000000000000000000D4000080B3
:1068940000500000CC000000030303003CA00100F2
:1068A40040A0010044A001007EA00100F6A0010068
:1068B40010A10100569F01005A9F01005E9F010034
:1068C400909F010008A0010022A00100B0DB040099
:1068D400A4DB0400704713907C471390A6481390E0
:1068E4004649139000180400F4170400A2A1010003
:1068F4001AA20100000000000000000000000000D7
:106904000000000000000000000000000000000083
:1069140000000000101804000418040014A301006F
:10692400C0A3010024A40100B8A40100FFFFFFFFDD
:10693400FFFFFFFF060000001E00282300000000E8
:106944000000000000000000000000000000000043
:106954000000000000000000000000000000000033
:106964000000000000000000000000000000000023
:1069740000000000B012020000000000000000004F
:106984000000000000000000000000000000000003
:106994000000000000000000AE1202000000000031
:1069A4000500640002056400000000002D01DD0103
:1069B4005A02BB020A034D038703BA03E803110416
:1069C40037045A047A049804B404CE04E704FF0498
:1069D40015052A053E0552056405760587059705C4
:1069E400A705B605C505D305E105EF05FB050806B2
:1069F400140620062C06370642064D065706610685
:106A04006B0675067F06880691069A06A306AC06F1
:106A1400B406BC06C406CC06D406DC06E306EB06C4
:106A2400F206F906000707070E0715071C072207D9
:106A340029072F0735073B07410747074D0753072A
:106A440059075E0764076A076F0774077A077F07A9
:106A5400840789078E07940798079D07A207A7074D
:106A6400AC07B007B507BA07BE07C307C707CC070B
:106A7400D007D407D907DD07E107E507E907ED07E4
:106A8400F107F507F907FD070108050809080D08CE
:106A94001008140818081C081F08230826082A08C8
:086AA4002D0831083408380800
:106AAC00000000003880B7C70400AA85AA8403A59B
:106ABC0007819700F36FE780407B2A8401C9A68683
:106ACC000146A6859760F26FE780C07022853480FE
:106ADC003880B7C70400AA85AA8403A5078197004C
:106AEC00F36FE780007D2A8401C9A6860146A6853E
:106AFC009760F26FE780006E22853480B7C7040080
:106B0C00AA8503A507811703F36F67000376388006
:106B1C00B7C70400AA85AA8403A507819700F36F61
:106B2C00E780A0742A8401C9A6860146A6859760D1
:106B3C00F26FE780206A2285348017B3F26F67000A
:106B4C00E3DF588019E17D55548000416DFCB7C9D5
:106B5C000400AA8403A50981B1459700F36FE7806F
:106B6C00C07088C06DD1EF10603E2A8909C98C4075
:106B7C0003A509819700F36FE780207780C04A85D1
:106B8C00E1B738801DC12A840841EF100041B7C716
:106B9C000400AA840C4003A507819700F36FE780DB
:106BAC00C07426852320040034807D55F5BF1881E0
:106BBC0081CD36863AC4AE8632C658000146994518
:106BCC002AC2EF10404914817D55F5BF81456F10E5
:106BDC0060541880EF10C0560F00F00F148018800E
:106BEC00EF1080570F00F00F14806F1060586F106B
:106BFC00407505C11C413BF7071437B70400032748
:106C0C00C7755B17F7147827BB11070199E36F1051
:106C1C00E05C7D558280288019C52A840841EF10DC
:106C2C008061232004002480AE8709C963C8050055
:106C3C00AA851395070141816F10B0227D55828082
:106C4C00AE8709C93BF40502AA851395070141815A
:106C5C006F1090227D55828001C508416F10F02283
:106C6C008280788201E5814426857482B7CA04004B
:106C7C002A8403A50A81AE8991453689328A970008
:106C8C00F36FE780805EAA8479DD2317010052CC74
:106C9C0093070020CA866373F900BE86A9472316A2
:106CAC00F1002C0093070010480036CA3ECE22C4D7
:106CBC004EC802C2EF20602709C903A50A81A68528
:106CCC009700F36FE780606279BF92479CC069BF01
:106CDC0009C50841A19D6F20A02D7D55828005C15D
:106CEC002880B7C704000041AA8503A50781970037
:106CFC00F36FE780805F228520806F2000168280F2
:106D0C001880EF10604801451480288005C95C414B
:106D1C0095C71C4185E72A8448459700F36FE780A7
:106D2C00203009CD48449700F36FE780602F18445A
:106D3C005040A286894520806F10102E7D552480EE
:0C6D4C0001C50A216F1070467D55828041
:106D580018801306803EB94597B0F26FE7808036F9
:106D680001C51F0513130080148081CD9C4591CB6C
:106D7800DC4581CB19E99F0728CE04009C2391CBE1
:106D880082801F051013008082801F050213008077
:106D980082801F0500130080828081CD9C4191CBA9
:106DA800DC4181CB19E99F0728CE04009C2391CBB5
:106DB80082801F050913008082801F05021300804E
:106DC80082801F0500130080828058803DE99387E8
:106DD800F5FF1F073FE13300636DF7041F0428CE5A
:106DE80004001C20B9EB3B771608AE848545328930
:106DF800012491469F0930CE0400B68501464E8590
:106E08009760F26FE780403D4E85F533A6859F0673
:106E1800A21A04004A8601450D28AA8409C54E8590
:106E2800ED3B2685548085471CA01CB02301240116
:106E3800CDBF9F0405130080EDB79F0401130080A8
:106E4800CDB79F0402130080E9BF78802A8AB284F4
:106E58002E8441225285312A52852D2A931A2A00DE
:106E68009F09C8D1040033863A01C92093E7170463
:106E78006D28BD9B5D2893E707209CC29F07A086CD
:106E88000100014963F887001F09801A0600333999
:106E9800890005095285B9223307A40033578702B0
:106EA8009F07FC1E04009B8727059E239385E70008
:106EB80063F1E5080D8F93561700158F9385F7FF3B
:106EC800B6951907B3865901A19D9C42219F41742B
:106ED80063140906945BE18E558F98DBD45B33F716
:106EE80086004D8FD8DB3386590118429306190066
:106EF8008D8A1C43E59B9BA7D7021CC3BB140902C0
:106F0800184213F674001C4FE19B5D8E10CFB387B7
:106F180059019C4352859F05601E0020D843136782
:106F28001700D8C38120014574809CC214429C423A
:106F380082800147814659B73B160901D45FE18E2B
:106F4800558FD8DFB043337786004D8FB8C361BF04
:106F5800F443E18E558FF8C3A847337785004D8FEA
:106F6800B8C751B79F07B8D104001B85A7040CC147
:106F780082800A059F07C8D10400AA9798435C43FA
:106F8800F99B5CC39F07B8D104003E9523200500F8
:106F9800014582809F07BCD10400DB97A70A2147DF
:106FA800FAA3DAA31147BAA30D479AA39F07C8D13A
:106FB80004001B85A7041C41F84B137707F01367DF
:106FC8004700F8CBB84B137707F013673700B8CBF7
:106FD8008280B727002083A707FA1F07C8D10400BB
:106FE8001CC3828001E505456F20812B0145828005
:106FF80011C9BB150501E14713B515001505BE8577
:107008006F20812ADD47CDBF828058802A89BB7FC7
:1070180005038DCD1F0434CE04002A941C2001479B
:1070280085E7AE848545B289F52C1F0538CE040066
:107038001B052505C93681464E86A6854A859120B9
:107048002A8719E185471CA03A8554801F0701004B
:107058000080DDBF48809F04E0D10400014413791B
:10706800F40F112819C9012888C0050491043B1C94
:10707800F403014544804A85B1AC1F0543100080E4
:10708800D5BF8880AA8A2E843289E937AA89631FE6
:1070980005221C209DC385450D28484497B0F26FF2
:1070A800E780204C83470402BB890707BB88071F7A
:1070B8009F09301300804E858480814539204844DB
:1070C80097B0F26FE780004AF1BF568519AC442C9F
:1070D8003BF8F4063B920402E30C09FC1C2CBBF4BD
:1070E800F70383474402BBF2F7041C283BF1F7027D
:1070F8005C28BBFFE7028347C402BBFDE7021C20F4
:10710800638907181C4CBB8AE70181455D2A1F0A61
:10711800E0D10400139B2A00B3046A019C40568501
:1071280023A207009C4023A607004C2C97B0F26FBF
:10713800E780802E144C49221D568D8A9BC7C7DADA
:107148009BA7D72C5CC35448852A858ADD9B9BA7BF
:10715800D7065CC314488D22858ABD9B9BA7D70898
:107168005CC31450912A0156FD8A9BC7C7E69BA7AA
:10717800D71A5CC39C401850D4433D8B93F6F6E174
:107188001BA7E60AD8C35450052A1D568D8A9BC7EB
:10719800C7E29BA7D7245CC31C4C3B9507024C5005
:1071A800BB930501568597B0F26FE7806012B3076D
:1071B8006A0198438327C70CD9472326F70C8326EF
:1071C800870D232CF70C1C20A5EB5C40014689C7D2
:1071D800FD1705463316F6008326870C931706011C
:1071E8004176C183F18EDD8E2324D70C54449F054C
:1071F80040420F005C4BB385B6021444B3D6B602C6
:10720800BBF106028946A19EF18FD58F5CCB1C2C61
:107218003B96070285455685ED2033076A0183278B
:10722800C90018432328F70E0C54D1C9FD155685FB
:1072380097B0F26FE780A006B3076A0198435454E9
:1072480085455C43858AED9B9BA7D7045CC395283D
:107258008145568597B0F26FE780404419C12320D5
:107268000500930600033385DA029F07ECD104007A
:1072780022863E9511281F057CD20400C1464A8605
:107288001B055509112005BDB6851763F26F670008
:10729800C37B032A4400568597B0F26FE78080418C
:1072A8000505E36745E15C44FD1781E43BE697305B
:1072B80001B5BBE49760EDBB98405C438280814593
:1072C800BDB7568517B3F26F670003FF9F093113E7
:1072D8000080D5B39F07B41F00201B85A704084171
:1072E80082808547370700523395A7008327877226
:1072F80089E55D8D2324A77282801345F5FF7D8D76
:10730800D5BF85471105370700523395A700832756
:10731800877289C55D8D2324A77282801345F5FF86
:107328007D8DD5BF38803B0305010DC13B070502A4
:107338003480C94413B415001504EF20410DA68507
:10734800228530806F105176CD44EDB7C544DDB746
:1073580018800147814601469F05B44A0400130579
:10736800F004EFF01F859F075476119083C5F7044A
:107378001305F004EFF0BF871305F004EFF0BF85A5
:10738800B7D7025723A00794054723A0E7941D47C2
:1073980023A6E79414806DBFB747005723920722AE
:1073A8007D572390E722B7C70257239C071E7D47C6
:1073B8002392E71E239CE71E2398071C85462396E5
:1073C800D71C2398D71C2398071E2396E71E6D47C2
:1073D8002398E71E828058803B702508B5CD2E89FA
:1073E800AA8997A0F26FE780205D1F07EC1F002095
:1073F8000043AA84631CE402268597A0F26FE78005
:10740800205D81457145EFF02FEAAA8431C9230434
:10741800350131051D2897A0F26FE780E0595C40DF
:1074280089CF44C080C0DCC084C301A81C24639CED
:1074380037011305C4001128268597A0F26FE7804D
:10744800205901455480004075B7C1464A86B68523
:107458001763F26F6700635F1F0501000080DDB7E7
:107468001F0505000080F9BF05CD18419F07B8D852
:10747800040098C35841D8C3184598C75845D8C779
:10748800184998CB5849D8CB184D98CF584DD8CFD4
:10749800185198D35851D8D3185598D75855D8D784
:1074A80082806880BB793503BBF8350779CE1C46E6
:1074B800E9CF32842E8AAA891F09F41F002097A0D9
:1074C800F26FE780604F83270900AA84C1171387EA
:1074D80007016313E904268597A0F26FE780404F00
:1074E80061459520AA840DC523003501A3004501F7
:1074F800B1462286110569209C44BDC34840050554
:107508009920C8C031E5268597A0F26FE78080B141
:107518001F05050000802DA09823631437039833B6
:10752800631147035840C84398C71844D8C7544004
:107538001040B920268597A0F26FE7806049014581
:1075480064809C4B61B7814517A3F26F670003AE57
:10755800544010403520D8405C40BA97238007003B
:1075680097A0F26FE780404583274900E9D7138742
:1075780004012322E90023A82401DCC898C365BFBD
:10758800B6851763F26F6700434C1F050100008042
:1075980045BF28801F04A0D80400E1460146B685EF
:1075A80022859760F26FE78020C3A5473EA4248018
:1075B8009F0764D804008A23130715009AA38280C2
:1075C80018800145212010806F70115728812C00E8
:1075D8002A84EF80A11FA247B7F6FFDF138706E0D2
:1075E8003E971F06000C00006369E6023247938647
:1075F800F6DFBA96BE966362D6029F0678D8040074
:107608009CC222859F0774D8040098C3EF80211E6E
:107618009F077CD8040088C324819305D011254591
:1076280097A0F26FE78000A1C5BF25732025643AB3
:10763800206F616C5F696E745F6372656174652049
:107648007265743A307825780A0000000707070643
:1076580007070707070707060007070707070707BA
:1076680007070707070706060506060606030306B3
:1076780000000606060406060606040000060606BE
:1076880006050505060606060606060601010106A4
:10769800060206060606060606060006060606068C
:0876A8000606000603000000C5
:1076B0009B37A5BE1B95A7BE8280AA8798233B0750
:1076C0000720930677FF3BE506053B05072BBB1B11
:1076D000072D85468507014509A88507C5B7814659
:1076E000D5BF5B15A00A8507198D9823130707FDE1
:1076F000BB6CF70A99E23305A04082808146E1BF66
:10770000788A37290020832709E22E842AC63ECFB3
:107710002ADCFD578145AA842800B289368ABA8AB4
:107720003EC8BD22D28656870546CE852800792CD4
:1077300001C86257B247998F6657BA97A6971CC07F
:10774000FA47032709E26386E70097F0F26FE780C4
:10775000E0C8748AFD567D5765B72A88AE86B28721
:107760006304B504F958B30816033387A540118F95
:1077700063E6E80017A3F26F6700C38933C7A5006B
:107780000D8B6374B5042A860DC7B297630DF6009E
:107790006F036000E5BF850603C7F6FF0506A30F6C
:1077A000E6FE028381E7C286368582806FF3BFFEE4
:1077B000FD17137736007DF7BBE4F7049842F11705
:1077C0001106232EE6FE9106C5BF19EBB305C500D1
:1077D000369613F73500B307D64001EFBBF907041F
:1077E000F9D3FD173387F60018233306F80018A2E3
:1077F000C5BFFD15E389C6FA8347F6FF7D169CA138
:10780000C9BFF1173387F60018433306F80018C2D2
:10781000F1B71DC2930615002A9603C7F6FF9C21F7
:1078200019C791C76385C60085066305F700330550
:10783000F74082808505D5B701458280AA8501C9B8
:107840001F05E02C00201703F36F6700C3AA828096
:107850003880868401441DC92A849700F36FE7802D
:1078600040A1BB03050126859700F36FE78040A088
:10787000A2851F05E02C00209700F36FE780A09FF2
:107880002A8409E59700F36FE780809E2285348083
:1078900058411C596CD5998F3CD91C4581C9B38678
:1078A000E74063D5D5002E9738D582803CD58280BD
:1078B000388018595C412A84998F3859B384E7007D
:1078C0007C5589CF63CCF400544018587D5534D48E
:1078D000158FB30797003CD868D4348022852528BB
:1078E000E34405FE7C54138714001444504095C3B0
:1078F000998FB385C64063DEB700B2973CD4145865
:10790000B387C6403E9738D8E3E9C6FCA30FA6FE6E
:10791000E9B734D4EDB73881B724002083A704E257
:107920002A843EC6912819C97D55B24703A704E2AF
:107930006381E70297F0F26FE78040AA1C5005468A
:107940009305B100228582973B18F5010345B100EC
:10795000E9BF3481188097F0F26FE78020A909E928
:10796000EF10401E9F078CF304001B85A7041480B2
:107970001F05CCF30400E5BF288078452A849307CF
:10798000F7FFD98F7CC5584D5C496386E7005C5191
:1079900001468145829781471CC85CCC5CC81C406D
:1079A00013F7470011C713E5070208C07D5524806F
:1079B000139707017D55E34C07FE085858583A9530
:1079C00008C448C01395B7017D85D5B7D8812A84EE
:1079D000AE893289B68CBA8A3BF205253B93050104
:1079E0000D2ED9471CC161A844402C54638CB404AB
:1079F000938514004CC084203B8CF420938774FF43
:107A00003BEAF705938554FDF599014C99E9938478
:107A100034FD93B41400330C9040C92C6387B70233
:107A20009D22638E09303B920910BB890430B52832
:107A300063E935077C5463C507005C40FD175CC0F3
:107A4000A12879BF552CAA8445BF7D24AA84D1BF23
:107A5000712C6389B702052A93E70402BB9017785B
:107A600071246384B70205228920BBEA45107C5447
:107A700063C4072C5C40630D0900F9175CC0014525
:107A80008145D481952CAA84C1BFBD24AA84E9BFB5
:107A9000FD175CC01120E5B781452285D5BB638306
:107AA00009183B9D390A014939A89F05547D119059
:107AB000A6958C3182805B99240B130909FD3D2426
:107AC0006385B70AC920938704FDBBF3070A9F07A4
:107AD00098999919E3F127FF014A938504FD3BF535
:107AE000150A9F079999991963ED47036317FA00DF
:107AF0009F079999999963E62703A947B306FA0264
:107B000013C5F5FF3307F902B337F902B69793D6D9
:107B1000F54113C6F6FF6366F600639BC7046379FD
:107B2000E5041F0B547D1190B3059B00593763E1A9
:107B3000351B6C5463C505004C40FD154CC0636F8C
:107B40005A1D63944A01636B991D93F41C0063975B
:107B5000041A63150C1A752A752A1385FCFFB33CA9
:107B600095019385FAFFE69529BF7922AA84A1BFE2
:107B70003309B700333AE900B6973E9A852A6388FD
:107B8000B700112099BF938517004CC051A8AD22B2
:107B9000AA84A1B7C1491389F9FF337939019F0D2F
:107BA000547D1190631D0910DD45B385B9029F070F
:107BB0004A7D119095819D89BE9583CB0500B38543
:107BC0009D00C53D63F63501B7070008636EF904F3
:107BD0005E867D55FD55EFC0A072014A2AC62E8DE6
:107BE000B3879D0003CB1700E37D3BF3E36B4DF3BD
:107BF0006315AA01B247E3E627F34A85D2855E867C
:107C00009790F26FE78080925C4038543369AB0004
:107C10002E8A6387E7021387170058C01120C9B75F
:107C200084238280A14985BF331979013369B90062
:107C300075286384B700813F59B77D28AA8441B76E
:107C40006528AA8471BF338929032E99452063854D
:107C5000B706153FB3859D00A93D63F735019F0722
:107C6000C6711C07E3F127FF014AB3859D009831D7
:107C7000E37937EB33363903B3864903630B0A00E4
:107C8000B387C600B3B7D700B3B54903BE95E39A2F
:107C900005E8B296B38729031346F7FF3B9206FF28
:107CA000E361F6E83389E700333AF900369A3D2874
:107CB0006389B700C93D55BF8120AA8461BF0149CE
:107CC00051BF1D28AA8455B715206384B702653DAE
:107CD000DA948C30E3EA35FF2D282D2893F41C002C
:107CE0006689568AE38704E4014CA1B55C402C54B4
:107CF00082801920AA84E9BF22855DBE63E64A011D
:107D0000631E5A0163FC2C01292029206685D68533
:107D10008DBB89B19304200204C182809357FC413A
:107D200033492C01B3C54701330589413339A900D3
:107D30009D8DB3852541B1B3E31309D4A1BB93074E
:107D40000003E387F4D0A949DDB100010204070371
:107D500006050000FFFFFFFFFFFFFFFFFFFFFFFF24
:107D6000FFFFFFFFFFFFFFFFFFFFFFFFFFFFFFFF23
:107D7000FFFFFFFFFFFFFFFFFFFFFFFFFFFFFFFF13
:107D8000FFFFFFFFFF00010203040506070809FFCC
:107D9000FFFFFFFFFFFF0A0B0C0D0E0F1011121358
:107DA0001415161718191A1B1C1D1E1F202122231B
:107DB000FFFFFFFFFFFF0A0B0C0D0E0F1011121338
:107DC0001415161718191A1B1C1D1E1F20212223FB
:107DD000FFFFFFFFFFFFFFFFFFFFFFFFFFFFFFFFB3
:107DE000FFFFFFFFFFFFFFFFFFFFFFFFFFFFFFFFA3
:107DF000FFFFFFFFFFFFFFFFFFFFFFFFFFFFFFFF93
:107E0000FFFFFFFFFFFFFFFFFFFFFFFFFFFFFFFF82
:107E1000FFFFFFFFFFFFFFFFFFFFFFFFFFFFFFFF72
:107E2000FFFFFFFFFFFFFFFFFFFFFFFFFFFFFFFF62
:107E3000FFFFFFFFFFFFFFFFFFFFFFFFFFFFFFFF52
:107E4000FFFFFFFFFFFFFFFFFFFFFFFFFFFFFFFF42
:107E5000FFFFFFFFFF000000000102020303030316
:107E600004040404040404040505050505050505CA
:107E700005050505050505050606060606060606AA
:107E80000606060606060606060606060606060692
:107E9000060606060606060607070707070707077A
:107EA0000707070707070707070707070707070762
:107EB0000707070707070707070707070707070752
:107EC0000707070707070707070707070707070742
:107ED000070707070707070708080808080808082A
:107EE0000808080808080808080808080808080812
:107EF0000808080808080808080808080808080802
:107F000008080808080808080808080808080808F1
:107F100008080808080808080808080808080808E1
:107F200008080808080808080808080808080808D1
:107F300008080808080808080808080808080808C1
:107F400008080808080808080808080808080808B1
:107F500008080808080808083881B724002083A703
:107F600004E22A843EC61DC9280097E0F26FE7802C
:107F7000402D224593074400232004001CC45CC00C
:107F800097F0F26FE78000760145B24703A704E25D
:107F9000638AE70097E0F26FE78040441F05061C04
:107FA0000002E5B734813881B724002083A704E2BA
:107FB0002A843EC629C1280097E0F26FE780602836
:107FC0001C44130744006394E70223200400014487
:107FD000224597F0F26FE780E070B24703A704E212
:107FE0002285638EE70097E0F26FE780203F1F0451
:107FF000081C0002F1BF1F04061C0002F9BF3481F7
:108000001880EF10405F0145148048802A842E8933
:1080100097F0F26FE780806B4C4023200400AA8425
:1080200089C9B7C7040003A5078197F0F26FE780FD
:10803000802C81475CC01CC49F0754B704009C433C
:10804000DC4791E711281F050109000244804A8599
:10805000829719200145DDBF268517F3F26F67006F
:1080600063688880AA8ACDC21F0A54B70400832798
:108070000A00D9CBDC4FC9CBBA89368432892E8B22
:108080008297AA8451C542091359094163460908D8
:1080900097F0F26FE78080639C402A898DEF80C063
:1080A00063800904B7C7040003A50781B14597F0B1
:1080B000F26FE780401C2A8419C53146CE8597901F
:1080C000F26FE78020F5C0C001EC15281F040309FA
:1080D0000002228584802D201F0404090002D5BFE0
:1080E000392883270A0001449C4BE5D7DA85568559
:1080F00082972A8479DDD6852685013FD9BF4A85B6
:1081000017F3F26F6700035E1F0401090002D1B785
:108110001F040009000275BF1F040909000255BFB2
:1081200028809F0754B704009C432A8481CBDC4FEE
:1081300091C7829701C9A2852080C1BD1F05010991
:10814000000224801F0500090002E5BF9F0754B705
:1081500004009C4381C79C4791C382871F05010986
:10816000000282809F0754B704009C4381C7DC470C
:1081700091C382871F050109000282809F0754B7BF
:1081800004009C4381C79C4B91C382871F05010952
:10819000000282801880AA8711C997F0F26FE780E9
:1081A000E0E8AA873B0205FF930715003E85108093
:1081B0006F00D06C9F075CB7040098439F0660B7C0
:1081C0000400D4C294C28145230707009C420CCB13
:1081D0008505D0431CC350C3D04318C2D8C3510730
:1081E0003B9AF51401458280288021C92A8497F0A2
:1081F000F26FE780A04D1F0760B704005C43639AED
:10820000E70097F0F26FE780E04D1F05031D0002C5
:108210002480D443984398C2984354C30147854669
:10822000DAA7F4A798C7DCC39CC39C4B1CC097F08B
:10823000F26FE780204B0145E1BF1F05021D0002E0
:10824000C1BF2880BB7615149F075CB7040080432C
:108250005B14A41497F0F26FE78040477C2485CB31
:108260005C40631AF4025E249DE77CA49F0760B71C
:1082700004009C43D8431CC058C0D84300C3C0C3AB
:10828000014497F0F26FE780E045228524801F04C7
:10829000011D0002FDB71F04091D0002DDB71F0408
:1082A000011D0002DDB72880378411901305A42C2E
:1082B0009790F26FE78080E5AA8505461305A42C08
:1082C00020801793F26F6700E3654F7574707574C3
:1082D00020696C6C6567616C20737472696E6721CC
:1082E0002076736E7072696E74665F732066616962
:1082F0006C6564210A004F73567072696E74662C47
:10830000206D616C6C6F63206661696C6564210A25
:1083100000009F07A0B7040098439F0698B7040089
:10832000D4C294C2130707028145230207FE9C4270
:108330002326B7FE8505D0431CC350C3D04318C2C3
:10834000D8C3130707033B99F50A0145828078805B
:1083500055CEE9C161C393064700B3B7D502DDEF3F
:10836000AE84B385D502B7CA040003A54A81BA8991
:10837000328997F0F26FE78000F02A8A45C597F0BE
:10838000F26FE780A0349F0798B70400C0436311E1
:10839000F40297F0F26FE780E03403A54A81D285BA
:1083A00097F0F26FE78020F51F0504060002748045
:1083B0001C4054409CC21C40D4C385472302F4FE99
:1083C000930784FF232EF4FE232CF4FE93078400EE
:1083D0005CC41CC4231394FE231434FF232044FFE5
:1083E000A30204FE231A04FE231B94FE231804FE9A
:1083F000231904FE40C000C097F0F26FE780802E82
:108400008327C4FE01452320F90055B71F050C063C
:10841000000271BF1F050D06000251BF1F050306B4
:10842000000271B71F050206000251B75880BB78E1
:10843000250A9F07A0B7040080435B14A43097F07F
:10844000F26FE780A0285C20AA89BDC75C4C1307A7
:1084500084016397E7065C50930404026392F40678
:108460005C5413078402639DE7045A287E28BA9758
:108470007A20639BE7045C30014999EBB7C704009D
:108480000C4003A5478197F0F26FE780C0E62A8988
:1084900081475CA01CC09F0798B704009C43D84349
:1084A0001CD058D0D84304C3C4C34E8597F0F26F94
:1084B000E78040234A8554801F090A060002F5B769
:1084C0001F0908060002D5B71F090B060002F1BFFD
:1084D0001F0905060002F9BF5880E5C5BB7B350AB8
:1084E0002E842A8913068002814522859790F26F97
:1084F000E78040B39F07A0B70400844397F0F26F72
:10850000E780C01CAA89DB942431DC20DDC7FE2073
:108510002320240103A9C4015EA09E247EA09E28DE
:108520001EA4BE283EA4DE287EA4FE285EA4492008
:10853000138784016398E70203A9440295281387EF
:108540000402639BE70203A9C4029D2013878402EF
:10855000639EE70201444E8597F0F26FE780801832
:108560002285548035281C48032909035D8D5C4809
:1085700008C8DD8D4CC865BF25201C4C03290903A4
:108580005D8D5C4C08CCDD8D4CCC4DBF11281C5052
:10859000032909035D8D5C5008D0DD8D4CD075B783
:1085A00003264901054581451783F26F670003F8EB
:1085B000130949FD9307C90282801F040A060002BD
:1085C00059BF1F041706000261BF1F040E060002F8
:1085D00041BF488029CE32842E89AA8497F0F26F59
:1085E000E780C00E1F07A8B704005C43639AE7004A
:1085F00097F0F26FE780000F1F0503070002448029
:108600009843D44398C2984354C30547238CE7FE4C
:10861000A38C27FF239D97FEDCC39CC383A7C7FFC2
:108620001CC097F0F26FE780E00B0145C9BF1F0542
:1086300002070002E9B79F07A4B7040098439F060A
:10864000A8B70400D4C294C221078145230C07FEB9
:108650009C42232EB7FE8505D0431CC350C3D04394
:1086600018C2D8C34107BB99F50A01458280C1678A
:10867000FD172E866304F5008145A1BF1F0508077D
:10868000000282802E863B720502854599B71F0540
:1086900008070002828028803B77150A9F07A4B74D
:1086A000040080431B04A40897F0F26FE7800002E7
:1086B0001C208DCB5C44130784006319F702230050
:1086C00004009F07A8B704009C43D4431CC454C4AF
:1086D000D443014498C2D8C397F0F26FE78080007A
:1086E000228524801F0401070002FDB71F0409072B
:1086F0000002DDB71F0401070002DDB70CC1CCC1C9
:108700008CC182809C411F07CCCCCCCC6393E70208
:10871000910563E7A5000D8D19E908C20145828026
:108720009C411F07CACACACAE384E7FEEDB7110518
:10873000EDB7FD571CC205458280488237290020CD
:10874000832709E29F06BCB70400D4C23ECE9F0730
:10875000B8B704009C4394C20146984292AB050608
:108760004C4398C3219ECCC34C439CC15CC39387AC
:1087700047023B1AF62881473EC49F07466C040017
:108780003EC29F07000800003EC81F0468B70400EF
:108790009F07408A119001483ECA50C893070010B5
:1087A0004C000A8542C63ECC7927AA840DED37B726
:1087B000040082470327877D9F05C4B704001CD4AB
:1087C000DB17F75C9847130584001367270098C7E9
:1087D0003537F247032709E22685638AE70097E0E9
:1087E000F26FE780A0BF9F040C030002DDB7448254
:1087F00028807C252A848DE75C3589C7F917819FFD
:108800003BF807021C4C37B504001CC4A2851305B5
:10881000057797E0F26FE78060358D475CA4248090
:108820005C48D5B788803DC93BFF150341C2D9C21A
:10883000BA8A368AB2892E8B2A8997F0F26FE7803E
:10884000E0E89F07BCB70400C043631AF40097F048
:10885000F26FE78020E91F05040300028480444092
:108860001C409CC01C40C4C3814444C004C097F059
:10887000F26FE78020E789475CA41E282320340399
:10888000A306640164A4232A2401232C2401232E9B
:10889000540104C42310FA000145C9B71F050103A0
:1088A00000026DBF1F05020300024DBF1F0500033C
:1088B00000026DB71F05030300024DB748802A84EC
:1088C000AE8497F0F26FE78060E02A89228597E016
:1088D000F26FE780A0482A8419E515201F040503DC
:1088E0000002228544805C25BB8E07023BE1170213
:1088F0003B8607031F040E0300021120DDB74A85E3
:1089000017F3F26F670003DEAA8537B5040013057D
:10891000057797E0F26FE780002989475CA4230779
:10892000040099C044C804CC2285D9350144F1B76C
:108930001F0406030002D1B70146814541B73880C4
:108940002A8497F0F26FE78060D8AA84228597E0A6
:10895000F26FE780A0402A8419E535201F04050343
:108960000002228534805C253B850702BBE01702AC
:108970003B8807031F040E03000221A01F040D0300
:1089800000021120F9BF268517F3F26F670083D527
:10899000AA8537B504001305057797E0F26FE780E5
:1089A000802089475CA4230704000144D9BF1F0429
:1089B00006030002F9B748802A8497F0F26FE78037
:1089C000E0D02A89228597E0F26FE78020392A8457
:1089D00019E515209F0405030002268544805C25C7
:1089E000BB8D07023BE517023B8607039F040E037E
:1089F00000021120DDB74A8517F3F26F670083CEBE
:108A0000AA8537B504001305057797E0F26FE78074
:108A100080192307040085475CA47C348144F1FB62
:108A20009F07BCB704009C43D8431CC058C0D84320
:108A300000C3C0C344A475BF9F040603000255BF12
:108A40005377745F5461736B00009F07DCB70400B9
:108A500023A007000145828028809F07E4B7040017
:108A60009CC3DCC39F07D8B7040098439F06D0B7C8
:108A70000400D4C294C21307C70201448547231CD3
:108A8000F7FC9C42232487FE0504D0431CC350C33B
:108A9000D04318C2D8C31307C705BB18F40FEF00A3
:108AA000F01E9F05F0B704001F0568B70400B93138
:108AB0009F07E0B7040080C30145248028801C453F
:108AC0002A8463CB0700B7C704000C4903A547817C
:108AD00097F0F26FE78020829F07D0B70400D4435D
:108AE000232804001307C40214D85CD498C2D8C346
:108AF00024803881B724002083A704E228003EC6E2
:108B000097D0F26FE780E0739F07E4B70400C0439B
:108B10006310F402224597F0F26FE780A0BCB247E1
:108B200003A704E2638FE70097E0F26FE780008B12
:108B3000228597E0F26FE780C023130544FDBD3F17
:108B4000E1B73481B7D7040083A707DF99C3C84BC7
:108B500082801F05070200028280B7D7040083A726
:108B600007DF014591C3885782807881B72A0020AA
:108B700083A70AE2AA892E843EC663050516638789
:108B800005169C49638807169C4163890716DE21F8
:108B90003BFD5720B7C7040003AA4781DC4589E79E
:108BA0009F0700080000DCC54444528597E0F26F3F
:108BB000E7808079636C95144844952848C4AA845A
:108BC00013050020AD2063E7A4145C441307F010E4
:108BD0006372F71495201F09D0B70400832449005D
:108BE000638A240F938744FDF5CB268597E0F26FC7
:108BF000E780201805284C445285414697E0F26FE3
:108C0000E780E06B2A8A15ED05288327490023A019
:108C100024011F0400020003DCC084C32322990046
:108C2000112079A8224517F3F26F6700A3ABC14565
:108C300017E3F26F6700A386280017D3F26F67006F
:108C400043602A864C4403A584FEEF0030511C4447
:108C5000184023AAA4FC23ACF4FE5C4423A244FFE6
:108C600023A804FE23A0F4FE5E2023A6E4FE1387BF
:108C70008401D8CC98CC1848239DF4FC8147DCD4DF
:108C8000DCC89CD09CD4854723AEF4FC23AA04FE08
:108C900023AEE4FE9307000081CFB7D7040083A77B
:108CA00007DF03A584FECC4B97000000E70000001F
:108CB0008947239CF4FC83A784FE014423A0F90088
:108CC000B24703A70AE22285638AE70497D0F26FCE
:108CD000E780C0701F041102000299B71F0401024F
:108CE00000023DBF1F0407020002D9BF1F0401029A
:108CF0000002F9B71F0405020002D9B71F040402DD
:108D000000027DBF1F04030200025DBF1F0420029A
:108D100000027DB71F04060200025DB7748148811E
:108D20009F04D8B70400372900208040832709E238
:108D30005B14A45C3EC61C44898B63910712280017
:108D400097D0F26FE780E04FCD2813F71700631339
:108D5000071013F7070115C39F0768B7040098535E
:108D600029C70547D8D71F040B02000311205DA0B7
:108D7000224517F3F26F6700E39613F747004DC7DC
:108D80001305C40297E0F26FE78080607D20ED9BC1
:108D90005EA0652093F7070A91C7228597E0F26FDE
:108DA000E78020015928F59B5EA0412813E61700B3
:108DB0007D5752A038C023260404C18BD1C71C4460
:108DC00063CE07009F07E4B704009C431307C40267
:108DD000D4435CD414D8D44398C2D8C39F07E0B717
:108DE000040098409C43DB17F75C5848D2A3D8CBCB
:108DF000184898CB185498D785475EA097D0F26F43
:108E0000E780C05E0DCD9F0768B704000947D8D73B
:108E100085370144B247032709E222856384E704CA
:108E200097D0F26FE780805BA18BA5D71305C402B2
:108E300097E0F26FE780E0F3A9BF5E20828097E0C1
:108E4000F26FE780205EE9B785475EA02285BD31DD
:108E5000014429BF1F040A02000209BF1F041402B3
:108E600000024DBF44819F07E0B704009C43637438
:108E7000F50081456DB51F0507020002828048811B
:108E800037290020832709E23EC69F07E0B7040088
:108E90009C43637DF5089F07D8B7040080435B14AB
:108EA000A45C280097D0F26FE780A0395E20A2442E
:108EB00013F7170025E713F727002DC713F7D7FF80
:108EC00093F78702219F91CB5AA0014411202DA82E
:108ED000268517F3F26F6700E3806E201367470063
:108EE0005AA005461305C40297E0F26FE78060467A
:108EF000C5379F07ECB704009C430144858B89C7A5
:108F000097D0F26FE780A034B247032709E22285A9
:108F10006382E70297D0F26FE780404C1F040A0299
:108F200000026DB71F04090200024DB71F040702BB
:108F30000002D9BF448128802A84053901E5084010
:108F4000208035BF2480288237240020832704E234
:108F500023270100232B01003ECE9F07B66E04009D
:108F60003EC2930700603EC837B504009F070A92CF
:108F700011903ECA4C00FD4713054578232501009A
:108F8000231D01002314F1007D3719ED9F0768B7F9
:108F900004001F07D8B704001843DC4FDB17F75C49
:108FA00098471367270098C7F247032704E26386B0
:108FB000E70097D0F26FE780604224825881B7299A
:108FC000002083A709E2AE843EC63BF625209F071A
:108FD000E0B704009C43637AF5089F07D8B7040004
:108FE00080435B14A45C1C44898BC1E7280097D0A4
:108FF000F26FE78000255E2013F7170031EF13F7BB
:10900000470031C71309C4024A8597E0F26FE78031
:109010002038054666A0A6854A8597E0F26FE7806E
:10902000403305448144224597E0F26FE780806B2E
:1090300009C497D0F26FE7808021B24703A709E205
:109040002685638CE70297D0F26FE7802039918301
:1090500066A013F41700F9B701449F040A02000246
:10906000D9B79F0403020002C9BF9F040702000290
:10907000E9B79F0414020002C9B754814881372917
:109080000020832709E2AA843EC697D0F26FE780CA
:10909000E0352DE5B7D7040003A407DF1C44898B16
:1090A000B5E397E0F26FE780E0CD2DC191EC97E05A
:1090B000F26FE78040E5B247032709E2638CE704DB
:1090C00097D0F26FE7808031280097D0F26FE78069
:1090D0004017A685228597E0F26FE780A0CC5E203E
:1090E00093E707025EA097E0F26FE780A033224586
:1090F00097E0F26FE780005F014575BF1F050D0225
:10910000000355BF1F051402000275B71F050E02AC
:10911000000255B744815881B729002083A709E28E
:109120002A892E843EC6F9C59F07E0B704009C43F8
:109130006376F50C9F07D8B704008443DB94A45CE6
:10914000280097D0F26FE780C00FDE2013F71700DA
:1091500011CF61281F050A020002B24703A709E2E6
:109160006382E70A97D0F26FE7804027C18BBDE7A3
:109170009C407CC4DE203146938504045EB0FE2012
:10918000130504037EB0DC443CC09C487CC097803F
:10919000F26FE78020E8FC449054FD465CDCDC4C38
:1091A0009305000222851CD49C50232024035CD408
:1091B0009750F26FE780004DDC4488486C401306FE
:1091C00044053E957C44419928C4B307F5403CC80A
:1091D000EFF04FD328CC1128014541B797D0F26F5B
:1091E000E780C02051F58A8769B7224517E3F26FFF
:1091F0006700434F1F050102000285B71F050702E4
:109200000002A1BF54810145828049646C65436FAF
:1092100072653030300018809F07F8B704009C4317
:109220001307703E6378F70097C0F26FE78000790C
:10923000014514801F0500040002E5BF38802A8420
:1092400015CDAE842E8681459780F26FE78080DD54
:10925000938744FF18481CC49385C4FE9D579BC543
:10926000F5CAB7070080F98F9306C400CD8F14C0EC
:10927000232604001CC854C0054534800145F5BFB1
:1092800041112A8722C626C4054505C79DC15C43F6
:10929000014881440144B1468DE31C47054563EA1A
:1092A000D700958F94C180C5DCC123A6050184C970
:1092B00001453244A24441018280D0433705004039
:1092C0007D1593181600718D63D70800A106AA9624
:1092D00005089C43D1B76373A4002A848504D5BFD5
:1092E0004E6F206D656D20746F20616C6C6F632014
:1092F0003078257820427974657320617420706F0E
:109300006F6C5F616464723D30782578210A0030AB
:1093100078256C78206F7574206F662072616E6797
:1093200065210A00488137290020832709E2AA84A1
:109330002E843EC605459DCC3BEF0515B3E7B40032
:109340008D8B89CF1F05529411909780F26FE78023
:10935000206193053400F1991384C5FF280097D04C
:10936000F26FE78000EEA2852685C93DA24701ED98
:1093700031280545B247032709E2638EE70097D0FD
:10938000F26FE780A00519200145EDB73E8517E390
:10939000F26F670023354481054669B728801F04B2
:1093A00014B804009F0520D2000008C0F5371C4007
:1093B0001F0710B804001CC324805882B72900205E
:1093C00083A709E22A892E843ECE854415C18DC12A
:1093D000480097D0F26FE780C0E62C004A854D35F3
:1093E000AA84124585C097E0F26FE780A02F8544DC
:1093F000F24703A709E226856386E70297D0F26F5A
:10940000E780C0FDA24744C81CC0B2475CC0C24749
:109410001CC4D2475CC4E2471CC897E0F26FE780E7
:10942000602CF9B7548282806661696C20746F2069
:1094300066726565206D656D6F72792C20706F6F37
:109440006C3D5B25705D2C206D656D3D5B25705D11
:109450000A00706F6F6C2073697A65203078257808
:109460002073686F756C6420626520616C69676E3B
:1094700065642077697468204F535F4D454D5F41A7
:109480004C49474E5F53495A450A00009F071CB894
:1094900004000147DCC39CC30507A1073B1EF7205E
:1094A00082801F051E96119082803B7B055A85475E
:1094B000B397A70015813B0405013B050502F3B7EF
:1094C000473001458280BE8273B002BEDDBFBE82DE
:1094D00073B012BEFDB71F050009000282803B7BFE
:1094E000055A8547B397A70015813B0405013B0545
:1094F0000502F3A7473001458280BE8273A002BEF9
:10950000DDBFBE8273A012BEFDB71F0500090002B9
:1095100082801880AA873B74355A3BF53507014590
:10952000BBE3171A9917939627001D478D830D8F5C
:10953000FD171376F70F3BF707073E8513F7C601B4
:10954000BD4797E0F26FE780800E26364452606E8A
:109550007C00F32700BC3D473317D7001347F7FFC4
:10956000F98F3317D6005D8FBA82739002BC1480D6
:10957000F32610BC8520BE82739012BC0145C5BF86
:10958000F32620BC8128BE82739022BCC5BFF3267F
:1095900030BC8920BE82739032BCCDB7F32640BC6C
:1095A0001528BE82739042BCD1BFF32650BC1D204B
:1095B000BE82739052BCD9B7F32660BC2128BE820C
:1095C000739062BC65BFF32670BC2920BE82739085
:1095D00072BC6DB7B397E70093C7F7FFF58F3317EA
:1095E000E600D98F82801F050009000249B71F05D8
:1095F00005090002ADBF9F07A4C90400694723AC59
:10960000071223AE07120507B1073B1DF75AB7B77C
:1096100004001F072496119023AAE7748280504CFF
:10962000494300000000000010760400DE94119011
:10963000AA94119012951190D8750400A2941190DB
:10964000E0750400F47504000145828028802A84B6
:1096500097E0F26FE78080079F07241E002080C3F9
:1096600097E0F26FE78000080145248048811F04DD
:10967000DCCD04005E242A89AE84BBE237028D472C
:109680001EA0FD571CC49C442311240104C85CC0C7
:10969000EFF0AFCC1E205A2436201044AA851F05B7
:1096A000E29711909780F26FE780802B0048832823
:1096B000C408032844011C485844144450400C403A
:1096C000484C65201F051698119055208328C40723
:1096D000032884047C4403270408832644080326C3
:1096E00084080C4C285C51201F056998119041207A
:1096F00083284404032804067C503854745430589A
:109700006C5828409D201F05AA9811908D20832811
:109710004402032884025C5418585458105C4C5C72
:109720000850A1201F05EB981190912038487448EB
:10973000304C6C4C1F052E99119040811783F26FAD
:1097400067000322B7B7040083A7C77E858B8DDB34
:1097500097D0F26FE78080C919C1894715B785474F
:109760001EA0EFF02FBE08C439BF2AC08280178325
:10977000F26F6700E31E18809F07DCCD0400DE2730
:10978000BB9407019F07241E00209C4391C382972E
:1097900001A0E93DF5BF0F00F00FB717020023ACA1
:1097A00007C08280388044412A841F05789B11902D
:1097B0009780F26FE780C01AF93FA28526857D3534
:1097C00001A028802A8497E0F26FE78020F09F07AD
:1097D000281E002080C397E0F26FE780A0F00145CB
:1097E00024807461736B3A25730A746872645069DB
:1097F000643A307825780A747970653A307825783B
:109800000A6E657374436E743A25750A70686173E5
:10981000653A25750A006363617573653A3078258A
:10982000780A6D63617573653A307825780A6D74CE
:1098300076616C3A307825780A67703A3078257806
:109840000A6D7374617475733A307825780A6D65A2
:1098500070633A307825780A72613A307825780A50
:1098600073703A307825780A0074703A3078257829
:109870000A74303A307825780A74313A307825788D
:109880000A74323A307825780A73303A307825787D
:109890000A73313A307825780A61303A3078257881
:1098A0000A61313A307825780A0061323A307825F9
:1098B000780A61333A307825780A61343A3078256D
:1098C000780A61353A307825780A61363A30782559
:1098D000780A61373A307825780A73323A30782539
:1098E000780A73333A307825780A0073343A30783E
:1098F00025780A73353A307825780A73363A307805
:1099000025780A73373A307825780A73383A3078F0
:1099100025780A73393A307825780A7331303A302D
:109920007825780A7331313A307825780A00743313
:109930003A307825780A74343A307825780A7435C4
:109940003A307825780A74363A307825780A00005B
:10995000188097E0F26FE78060D701A048803284DA
:109960002E892E86AA849F05CACACACA22859770E4
:10997000F26FE780206B9F07CCCCCCCC130509EFAE
:1099800022951CC09F07020202021CC51307850016
:109990009306C5101C431F06010101011107B29770
:1099A0001CC3E319D7FE9F07807800001CC19F07E6
:1099B000C66E04005CC19F075099119023200510CA
:1099C00064D57CDD44800000000000000000000041
:1099D000732500349782EE8F9382424583A2020062
:1099E00082927321003489629382028073A00230D4
:1099F00083220111739032009302010987AD0200A6
:109A000007AD420087AC820007ACC20087AB020101
:109A100007AB420187AA820107AAC20187A90202F5
:109A200007A9420287A4820207A4C20287AF0203E9
:109A300007AF420387AE820307AEC20387A80204C2
:109A400007A8420487A7820407A7C20487A60205C5
:109A500007A6420587A5820507A5C20587A30206BA
:109A600007A3420687A2820607A2C20687A10207B1
:109A700007A1420787A0820707A0C207C2427390CE
:109A80000230D2427390123405610B06E17F4561CA
:109A90008B0FF1FF216173002030130000000100E3
:109AA0009732F36F9382C2330393C20063160300AD
:109AB0001771EE8F130101550503239662003703DA
:109AC0000040B3736A0063840300C14231A83703C6
:109AD0000080B3736A0063840300C54231A0B702FB
:109AE0000080FD12B3F259001685F3250034970269
:109AF0000000938282C8829201A000000000000052
:109B0000930201010B96E27F9302010827A0B201A4
:109B100027A2A20127A4920127A6820127A87201E9
:109B200027AA620127AC520127AE420127A03203C7
:109B300027A2220327A4920227A682024111732A98
:109B400020FC52C0F32920344EC2732930344AC459
:109B50000EC6F324003026C87324103422CA12CC57
:109B60000ACE7310013491C111A01DBF1771EE8F81
:109B700013014169B1BDDDBC4F6F70733A4E4D4961
:089B80000A00000000000000D3
:109B880048802A8997C0EF6FE78020522A8419E419
:109B98004A85408017C3EF6F6700E3512285044070
:109BA8009710F36FE780E04011E5228597E0EF6FAB
:109BB800E780A05F2684E1BF37250400130585836D
:109BC800C1B718809F0774DA040088C3014781462B
:109BD80001469F05F4A8040013051004EFC07FFD9B
:109BE8009F075476119083C5170413051004EFD00E
:109BF8000F801305100410806FC0FFFD1880130537
:109C08001004EFC01FFE81451305100410806FC0BB
:109C18003FFC18809F0774DA0400C8C301478146D7
:109C280001469F0504A9040013052004EFC07FF82E
:109C38009F075476119083C5270413052004EFC0AD
:109C48001FFB1305200410806FC0FFF81880130550
:109C58002004EFC01FF981451305200410806FC050
:109C68003FF79F0770DA0400239007009F076CDA1C
:109C7800040023A00700828068807C312A84AE8497
:109C880099C3FD177CB103290400131A0901135A5B
:109C98000A0152859770F26FE780C0C79E24AA898F
:109CA800231AF5088357250C85072311F50C8C40DA
:109CB8005285EFF077621F063E000B00CA854A8581
:109CC8009770F06FE780A02583C7E90489E73D28EE
:109CD8008920014564809A2483D7490A998F03C74C
:109CE800B905A19FB3E7E70281EF83C7E9143B9366
:109CF800070183C75915BBF207074E85EF00824954
:109D0800312001284E85EF109254E1B74E856F003F
:109D1800C87308401773F26F670043AE03476515B1
:109D2800BB76070FB72719909387C7839B87E704EC
:109D38009C4382878547A30AF51482808947E5BF3B
:109D48008D47D5BF9147C5BF9547F5B79947E5B743
:109D58009D47D5B7A147C5B768821C412A849F048F
:109D68009C0404003EC49770F26FE780A09B482CC7
:109D78006D699770F26FE78060A3A247BB17050271
:109D88003EC670001385840755282A8421E1977000
:109D9800F26FE780A09901456482938904023EC866
:109DA80010084E8561282A847DD14E85224A97C0A5
:109DB800EF6FE78000301A2C54442A86D2851F059D
:109DC80034CC80299770F26FE780408902CA02CCB0
:109DD80002CE34001306A95D4C081385C4028D28F1
:109DE80013858403952013854404B9289770F26F6E
:109DF800E780C09348089700F36FE780800E084417
:109E080097E0EF6FE780603A22859700F36FE7806D
:109E1800A0099720F06FE780209A9710F06FE780ED
:109E280020691385040297C0EF6FE78080283B7A8A
:109E3800D50381450545EF70713BB1BF9305A95D19
:109E480017C3EF6F6700C34834001306A95D4C08B9
:109E580017C3EF6F6700034181471F0768DF0400DE
:109E6800B306F7002380061A85073B9CF70DA30667
:109E7800071A82805880832905002A89AE841395A1
:109E8800090141819730F06FE780C0BD962490406A
:109E9800939509012A84C1811F0533EE802A9760B2
:109EA800F26FE780A07B9770F26FE780A087834707
:109EB80079004A3483554406B9CBFD15A19D97C056
:109EC800EF6FE78040A68357440685072312F40600
:109ED8009C403CD0854522859720F06FE78040F470
:109EE8008347E402BB93070122859720F06FE78040
:109EF80020D62285EFC0312E9770F26FE78000835D
:109F080022859720F06FE780E0E0014554809C406F
:109F18003CD0938715002312F40697C0EF6FE780B3
:109F280080A04DBF28802E849770F26FE78000993B
:109F3800B717040083D76719370741599305C4FF3A
:109F48003E975E3560C1A19DDB17F7C0AEAF8EAFFF
:109F58002480688206062A8493140601B689139918
:109F680015009760F26FE780E07B22859730F06FED
:109F7800E78040AF8347E5022A84C18068413B936C
:109F880057018357E40503574406130A204EB38943
:109F980049031D8F219F8357C40583452405231436
:109FA800F1003305A702384C231134052695FD54DA
:109FB8002A979580658F3AC29760F26FE780005FB5
:109FC8001306050183552404684006069720F06FA0
:109FD800E780E0C431C13357450383572404AA9767
:109FE8002311F40492470581998F130710273375BD
:109FF800E50203578100E58F3EC26379A700FD178C
:10A00800E58F130717273EC22314E1008357810009
:10A018003385A7402314A10083562404035644061D
:10A028004C00938706FE2310F404B717040003D7E7
:10A0380067195E3422855B17F7C0B7074159BA978D
:10A048009E2B0357E405A1833307E640FD8BB387B6
:10A05800E7020347E406BA9713075002B3F7E7028B
:10A068002307F4069720F06FE780602812464E34E5
:10A0780003572404835681001F05349E812A976064
:10A08800F26FE780A05D92461C54A309040433F7DD
:10A09800260323A427016800D8CB1C4036CA4AC827
:10A0A8003EC683578100231CF10083574406231DB5
:10A0B800F1008547230EF1009760F26FE780007684
:10A0C8009760F26FE780806664823C5001562314E3
:10A0D8000100AA97A6979BC7C7CA3EC241BF3B04C7
:10A0E80005023B620502BB63050501458280130535
:10A0F800300482801305C0038280188097F0F16FC6
:10A10800E78020829720F26FE780C0841080176371
:10A11800F16F670043A418809760F26FE780004AE8
:10A12800E93F10801773F16F6700038A99E193057F
:10A1380000108D816FD01038B727040083A7478C93
:10A1480081469C439C5311C91307D00E9946630658
:10A15800E500954619A083A787FF91CBE39DB7FE3D
:10A16800014685453E851773F16F670043938280EA
:10A1780038811306F1009305E100AA840045EFF049
:10A18800743101C9814526859700F26FE780804BBD
:10A19800348118508347F1001377070401EBEDDB96
:10A1A80026859700F26FE780E072DDB7F5F3CDBF43
:10A1B8007881004583477402444018503B95070254
:10A1C800936707201CD09710F26FE78080997481FD
:10A1D800936707401CD0BC38B42CF58F858B81C79A
:10A1E800936707601CD0A928C18B89C71C5093E7C7
:10A1F80007021CD0B120A18BA1CB22859700F26F5A
:10A20800E78080B569D51C50138A0401938A7401CC
:10A2180093E787001CD0D685528597F0F16FE780C9
:10A22800E04A2380A406930710086309F500BB7A67
:10A2380005823B77E5021C50DD9B1CD022850DA8CA
:10A24800BC38B82CF98F82801C5093F70704C5FFDF
:10A258008D472303F40245BF93072008630CF502DA
:10A2680093073008E315F5F61C502285C18B91C77A
:10A278009700F26FE78080A799BF97F0F16FE780AA
:10A28800603DB727040083A7478D2A8681459C43F4
:10A29800A52035BF228597F0F16FE780A03B1C50C1
:10A2A800AA89D68513D967005285134919001379ED
:10A2B800190097F0F16FE780203F372A04006319EF
:10A2C800A904EFF0742B15CDEFF0542C2AC6914653
:10A2D8007000C14526859730F26FE7800077C14648
:10A2E80026869945138589009720F26FE78060914B
:10A2F8001D208545112099B7884F17F3F16F670026
:10A30800A334D14526859730F26FE78040A4C1BFBA
:10A3180019208945B5BF83274A8D4E869C43828084
:10A328005884BB02064129473A8554842A8444410B
:10A338002E852E899770F26FE780C0D86DD59389E6
:10A34800240C13060004CE854A859770F26FE780C7
:10A3580060CB71D9930600044A86B6854E8597303E
:10A36800F26FE780806E1307100F5DFD9F07BE83B5
:10A37800605A3ED09F07DB0B37603ED29F0738A557
:10A38800F5AA3ED49F079183886C3ED602D802DA9C
:10A3980002DC02DEEF00E4720A86CA859770F26F6B
:10A3A800E780C0D1130600020147938624068A85F8
:10A3B8003305C1009730F26FE78000B91C50414760
:10A3C8001BA7E7F218D00D472303E4029396B700C2
:10A3D8000147E3CB06F493F7070499E7A68522859E
:10A3E8009700F26FE7802094A68522859700F26F88
:10A3F800E780008301470DBF28803284EF00246D79
:10A40800930600042A86B685228520801733F26FCA
:10A418006700A36348825C452A84C44B1C51A18B06
:10A4280089C79C3093E727009CB01C50C18B89C713
:10A438009C3093E717009CB0130560049760F26F97
:10A44800E780401E2A89484419462C0013058503D5
:10A4580002C4231601009770F26FE780A0BA01EDDD
:10A468009F05CBAA0E271F057E01B3009770F26FD8
:10A47800E780C0B544825044A1464A851306860346
:10A488009D285C449306E003268683C7E7041305EA
:10A498008900A303F90085209C3013F7070409E716
:10A4A800E207E18763D90702B717040083A7871675
:10A4B800A1CBC1453305B10097F0F16FE780C0E942
:10A4C8004147B306E1003A86930569024A859770C9
:10A4D800F26FE78020954844EFB0F41BB7270400DB
:10A4E80083A7478D4A8691459C43884F97F0F16F23
:10A4F800E780801541B7B6851733F26F6700E354DC
:10A50800C1460146B6853305D1009730F26FE78022
:10A51800A0CC7DB778802A8AAE84630C0512B72A4E
:10A52800040003A74A8DD2851C4323AE070A0843BB
:10A5380021059720F26FE780409403248A0005479D
:10A548005C448329440003A947011C5093F707047E
:10A5580091C32D472303E402C1E881446399090AA2
:10A56800834704021CD0638909004E859760F26F07
:10A57800E780C00A232204001C4499C713058400FD
:10A588009770F26FE78000B999E4D2852285970029
:10A59800F26FE78000A8A68552859700F26FE780E2
:10A5A800C0FB13058AFF9760F26FE78020079307C7
:10A5B800000F6380F40A83A74A8DA28588439720F9
:10A5C800F26FE780808051C51C5071777D17F98F35
:10A5D8001CD022859700F26FE780C0E12DC57080FE
:10A5E8001713F26F6700A3BD1F057E01B30026860F
:10A5F8009F050BAA0EE79770F26FE780A09D0145B3
:10A6080097F0F16FE78040FA3B96D405B9B7E309B4
:10A6180009F483441900A9D41C5093F7072099E73B
:10A628008347090093E707042300F9002285970070
:10A63800F26FE78080F783470900814493F7F7FBBF
:10A648002300F90031BF228570801703F26F67007D
:10A65800A3A37480988104459C50858B89E783C7A0
:10A668007402BB981702AA89268583AA440097001A
:10A67800F26FE78080882A84412AA9E79C50998351
:10A6880093C71700858BD69703C9C701630C0902C6
:10A6980009459760F26FE780E0F88946B68501467C
:10A6A8002A8B9730F26FE78020B35A85C1459720EF
:10A6B800F26FE780C06989465A863305D4002D2297
:10A6C80019C1912A948193771900ADCB9C50C18B05
:10A6D800B5E71945392A02C002C202C402C61020D1
:10A6E80005478A862A8ADA853A9597F0F26FE780D5
:10A6F800C09FC1460A861305E402FD200122AD452C
:10A708001D45CD28930B35002A8A930500045E85E4
:10A718009720F26FE780A063014713061A008A8624
:10A72800DA855E8597F0F26FE78040A1C128E928B5
:10A7380093E73700E92893E747001CB0937729008F
:10A74800BDC321457D202A8AC145050597F0F16FD3
:10A75800E78080C06520A145254569283727040082
:10A768008327478D99462A8A9C43B685090583C75E
:10A778002702A30FF5FE8327478D90437106B52066
:10A7880019C99F050BAA16CD1F057E01B300977046
:10A79800F26FE780A0839D20852893E7C70085286E
:10A7A80093E707041CB0137949006308090223AE34
:10A7B8000400C54529453D282A89C1455A8605050D
:10A7C80097F0F16FE78020B5CA851528352893E7FB
:10A7D8000701352893E707011CB035284E859700F7
:10A7E800F26FE7800005F9BDB6851733F26F670091
:10A7F800C325C54517F3F16F670083FCD28526850D
:10A8080017F3F16F6700C3F983C7EA058280238FC6
:10A81800FA041C3082805A851763F26F670003E0E0
:10A828009880B2846304051C2A229700F26FE7809F
:10A83800008A2A84630D05181C5193F7070463984E
:10A8480007185C45494503A9470171225230B70BE7
:10A85800B3002A8A9F05CBAA16FB1385EB179760CE
:10A86800F26FE78020774A859710F26FE780C0CBB8
:10A87800630C09108347190013F747006306071094
:10A88800858BB9C383460900130649003522814ADE
:10A898004DEDBE208965E9052310FA00C9465946E1
:10A8A8001F051A20CA4297B0F16FE7804095D285FC
:10A8B8003D22BD572303F40256851D2A2685908024
:10A8C8001763F26F670083D55C40DDEF2122AA8908
:10A8D800894601468520DE24A183A380F900DE2471
:10A8E8002380F900C52889460146AA8AA120130BAE
:10A8F800E902138544000147DA865686CE8597F02B
:10A90800F26FE780A0834E85E5200946B305C900AC
:10A9180056859760F26FE780E06E15E103460900FF
:10A928000147DA86D68513052A0097E0F26FE7809B
:10A93800C07B85B7B6851733F26F6700E3899F053B
:10A94800CBAA1A1F1385EB172528528555205920A5
:10A95800BE2089652A841EA1ED05894659461F0532
:10A968001B202C4297B0F16FE7806089A28585286B
:10A978009F05CBAA1A4F112081B71F057E01B3008E
:10A988001763F26F670083645C4095CF1C50C18BDE
:10A9980099C79F05CBAA1A2CCD37814A7DB7814527
:10A9A800228597E0F16FE780C075C1462A86AA8A9A
:10A9B8002120E30005EE9480B68513052A0017339D
:10A9C800F26F670083089F05CBAA1A39F1B7814A4D
:10A9D800014AA5BF09451763F26F6700A3C42A8619
:10A9E800814601451763F26F6700C31F814AE9B5C5
:10A9F8001763F26F670083C213F535008280788091
:10AA080004452A899D45885083A944001375050487
:10AA180013351500050597F0F16FE78060DA83C7F5
:10AA280074022A84BB8A37029760F26FE780002598
:10AA380008B0DC44AA8A2685BC3B93F70703B337E2
:10AA4800F0003CA097F0F16FE78020768347D900AB
:10AA58002A8AE98FA306F9003CB09760F26FE78075
:10AA680060BA3B1505019C5093F7070499C3034A44
:10AA7800D900A30144018347C900858B81CBBB93CF
:10AA88000A033C2081E73C30ED9B3CB0B72704002B
:10AA980083A7478D9C43DC2B5CA08347D900858B1B
:10AAA80089E783C77402BB9407029C5093F7070495
:10AAB800A5CB8D475CB07CA0930500081385E90100
:10AAC8009720F26FE780A0289C509D4622869983A4
:10AAD80093C71700858BB387D702B68513850701FF
:10AAE8004E959730F26FE78040F619C99F050BAA7B
:10AAF8001ABE1F057E01B3009760F26FE780004D14
:10AB0800A2852685708017F3F16F670063C999469F
:10AB18000146B68505059720F26FE780E06BBDB763
:10AB280083C759018D8B5CB083C769018D8B61B771
:10AB380068812E89328A2A84B031B709B3009F050B
:10AB4800CBAA1AE1852822859700F26FE780808AD0
:10AB5800AA843DC5A307010052309F05CBAA1AE677
:10AB68009128D0349F05CBAA1AEF1F057E01B300A8
:10AB7800A120228597F0F16FE78040C65286CA85EA
:10AB8800268597F0F16FE780A0D6A307A10005E11D
:10AB98001C50374708002685D98F1CD097F0F16FD5
:10ABA800E780606326859700F26FE780A00503457C
:10ABB800F10064811385E9171763F26F6700834119
:10ABC800034639009305F10022859700F26FE7806C
:10ABD8004084AA849F05CBAA1AEA1385E9179760CF
:10ABE800F26FE780A03EB5FC8347F1001307E00E43
:10ABF800E39FE7FAA30701005DBF00000000000023
:10AC200028802A8401C9EFF02FFE09C522852080E3
:10AC30006F3020072480B7C70400AA8503A50781C9
:10AC40006F503013B7C70400AA8503A507816F5062
:10AC5000501A0F00F00F828005458280397106CEB0
:10AC600022CC2ED232D436D63AD83EDA42DC46DE78
:10AC700009C92A84D53711C54C1022852EC6EF404C
:10AC8000F067F24062442161828001C508416F4053
:10AC9000B0227D55828048802A84AE8432853689F0
:10ACA00001CC3B0206FFEF502068AA8608404A8686
:10ACB000A68540806F4030137D5544801880EF504A
:10ACC000B0500F00F00F14801880EF50B0500F00FC
:10ACD000F00F14801880EF50B0500F00F00F148068
:10ACE0001880EF40102A19E10F00F00F14806F4018
:10ACF000B07F6F40907B09C50841FD556F40B0356E
:10AD00007D55828028802A8411C9BB8205FF2E854B
:10AD10006920AA85084020806F40F0337D5524804B
:10AD200001C508416F40B046828028802A8419C935
:10AD30003B8305FF2E85EF50205FAA8508402080C9
:10AD40006F40F07E7D55248001C508416F50E008BA
:10AD500082806F5060536F50A05482806F50E060CB
:10AD600011C50A2117730D90670043ED7D55828050
:10AD7000188011CD0A2197700D90E78080EC9F0715
:10AD80000D0300026307F50001E5054511A07D559F
:10AD900014800145F5BF6F50C0576F50E0586F5099
:10ADA000205B0145828068819F0728CE0400DB97E5
:10ADB000A706BC33A5EF2A898041EF103000AA898D
:10ADC0002E8A8144B3579400858B89CF93F5F40F75
:10ADD000A92009E9B247BB930701B397970093C72E
:10ADE000F7FF7D8C8504BB97F40CA6853D2001E51B
:10ADF000B2473B8C0701EF10607CB3073541333518
:10AE0000F500B38545416396A5001307803E637E38
:10AE1000F7001F051313008001A870004A8502C6C1
:10AE200065A31F0511130080648141FC0145EDBF3E
:10AE300088829F0728CE040002C2DB97A70623134F
:10AE4000B10002C4A38107003284AA8A5000894558
:10AE50006928AA8405E503290400032A440002C6E0
:10AE600002C8814963EE49019307004002CA3ECC03
:10AE70002C088D28AA8401468D45BD202685848214
:10AE800002C00A8695458D200247B3073A4102CA9F
:10AE900002CE6374F7043ACC639509001C34A30E08
:10AEA000F1005008A145892001E9930700083EC838
:10AEB00089473EC60C083D20B307390156853ECA76
:10AEC0000D252A8B4C0856856929AA84DA85568572
:10AED000192DD5F0E247BE9971B73ECC1C24230E44
:10AEE000F1005DBF5685C1B55685F9A941BF88827D
:10AEF0009F0728CE040002C2DB97A7062313B100E8
:10AF000002C4A38107003284AA8A500081456128C7
:10AF1000AA8405E902C602C802C003290400032A64
:10AF200044000A869145BD2882478149B5E39307CD
:10AF3000002002CA3ECC2C08B928AA8401468545C7
:10AF4000952026858482930700043EC895473EC617
:10AF50000C089120AA847DF10247B3073A4102CE42
:10AF6000637DF7023ACC639509001C34A30EF1000F
:10AF7000B307390156853ECAAD232A8B4C08568546
:10AF8000A12EAA84DA855685B92BCDF8E247BE9961
:10AF9000E3EB49FB69BF568539B53ECC1C24230E33
:10AFA000F100D1B756850DA15881AE89B2852A89A5
:10AFB000B28497500D90E780000F2A8415ED4A85E2
:10AFC00097500D90E78080092A841DE59C4002C6B9
:10AFD0003EC2DC409F0430CE04009B8424053EC466
:10AFE000268585472306F10039335000CE854A85F2
:10AFF000FD3D2A8426852D33228554815881AE89D2
:10B00000B2852A89328497500D90E780C006AA84C1
:10B010001DE51C4402C63EC25C441F0430CE040041
:10B020001B0424053EC4228585472306F100E13137
:10B030005000CE854A85ED3BAA842285D5312685F0
:10B04000548168812E8AB285AA84B28997500D9066
:10B05000E78060052A841DEDCE85268597500D90EA
:10B06000E78060012A841DE5268597500D90E780D2
:10B07000E0FE2A8405E11F0930CE04001B09990473
:10B080004A8595394E86D2852685393F2A8409C559
:10B090004A857931228564819F07000800006C0091
:10B0A00026853EC602C401334E86D2852685B93731
:10B0B0002A84F9BF014582809F07C8D104001B85FF
:10B0C000A7041C410145BC538583858B9CC18280AC
:10B0D00085479CC10145828028802E84254689456C
:10B0E000B92608C0014524807880C441AA8AA9C431
:10B0F0002E84A685A12A4169014A7D1963020904AB
:10B100009F09C8D104009B89590583A70900BC5336
:10B110008583858B91CF13351A001424050A0C34CE
:10B120003386444113361600052E83A70900C8CF85
:10B13000E3659AFC014574801F0510130080E5BF8C
:10B140001F0513130080C5BF6881AA892E85B285AB
:10B1500070005D282A8421C1139A29001F09C8D1D3
:10B160000400B3042A0198408346F1004E855C43F5
:10B17000858AF99B5CC31C43BD9B9BA7D7081CC356
:10B180008347E10099EB1526B30749019C43D84357
:10B1900013671700D8C322856481352694408357EE
:10B1A000C100984A13F6F73F937707C0D18F9CCA26
:10B1B000E1BF38802E84AE210946AA84713719C5B3
:10B1C000268529221C201CB5014534801F05071344
:10B1D0000080E5BF38802E84AE210546AA84AD37B5
:10B1E00019C52685E5201C201CA5014534801F05B6
:10B1F00007130080E5BF0145828000000D000E00AE
:10B2000010000E0016000E001F079C1E00200148B3
:10B21000BA8716236365D502362363E2A6029B87AD
:10B220000707F82381466D8F6310B7021375F53F4A
:10B230000AA2D823854638A2DC333CB231A00508E7
:10B2400021073B14F8088146368582809F07C8D1C4
:10B2500004001B85A70418413C4B91E18545FD1571
:10B26000819D93F707F0CD8F3CCB828028802E8480
:10B27000194689456D2A08C0014524809F07BCD125
:10B2800004005B95A70A7A213621814763F4E60022
:10B29000B307D7409CC1014582809F07BCD1040001
:10B2A0005B95A70A5E2185839CC191E385479CC17C
:10B2B0000145828085479CC10145828028802E847B
