:02000004901159
:105300006F0040009712F36F9382C2D573905230B2
:105310007350003073504030930240007390227CF1
:105320000F00F00F9302C0007390327C0F00F00F5B
:1053300097E1EE8F9381011C17B1EE8F1301812C41
:1053400097D2EE8F938202AC17230800130383CE0B
:105350000B30030097C3EE6F9383C3BA63800302DD
:105360000B0083FF130303020B3003000B9082FF3B
:1053700093820202938303FEE34470FE97C2F26FAE
:105380009382425A176300001303C3890B30030052
:105390009743EF6F93830331638003020B0083FF16
:1053A000130303020B3003000B9082FF938202026F
:1053B000938303FEE34470FE97B2F26F938282C43C
:1053C00017030000130303240B3003009303004171
:1053D000638003020B0083FF130303020B300300FF
:1053E0000B9082FF93820202938303FEE34470FEDC
:1053F00097C2F26F9382821A17C3F26F130303529C
:10540000638A62009303000023A07200938242002B
:10541000E3CC62FE97B2F26F9382C2FF17B3F26FD2
:105420001303C310638A62009303000023A0720079
:1054300093824200E3CC62FE9762F36F938282B85C
:1054400017A3F36F13030383638A620093030000BF
:1054500023A0720093824200E3CC62FE97B2F26F07
:105460009382C20C170300001303835D97C3EE6F92
:10547000938343C0E38E03F6032E030023A0C201EF
:1054800093824200130343009383C3FFE34670FEFD
:10549000B762000073A00230731030009702010061
:0854A000938282116780020073
:1054A80000000000CAFED00D02000000000000004D
:1054B800627332316520312E302E31380000000001
:1054C80000000000000000000000000000000000D4
:1054D80000000000000000000000000000000000C4
:1054E800756E6B6E6F776E000000000000000000A4
:0854F8000000000000000000AC
:10560000000000000000000000000000000000009A
:10561000000000000000000000000000000000008A
:10562000000000000000000000000000000000007A
:105A1000F0561290489611904A8A1190588A119027
:105A200062571290008011906C571290169211904C
:0C5A30003A871190468F1190B2561290E8
:105A3C0017430E90670023DC17430E90670043DE7C
:105A4C0017430E906700831717430E906700E34CC3
:105A5C0017730D90670023171773129067002318A4
:105A6C00177312906700030D177312906700C33100
:105A7C001773129067000331177312906700030CB1
:105A8C00177312906700430B17F30E9067002333C4
:105A9C0017F30E906700E36F17F30E9067006369BE
:105AAC006FA000430000000017F30E9067004368DE
:105ABC006FA0E0480000000017230F906700831EC2
:105ACC0017230F9067002319176312906700637AEE
:105ADC0017030F906700631017230F906700A38EB6
:105AEC0017D312906700033E17631290670003767A
:105AFC00176312906700C376176312906700C37622
:105B0C0017D312906700C32D17631290670043716F
:105B1C00176312906700237017D312906700C31598
:105B2C0017D312906700031517D312906700432305
:105B3C0017D312906700A31B17D312906700832F03
:105B4C0017230F906700631B17230F9067004318F0
:105B5C0017230F906700A32017230F906700831D56
:105B6C0017D312906700E31717D30E906700C3FA90
:105B7C0017D312906700631017D3129067000312AB
:105B8C0017D312906700A30D1773109067008367EB
:105B9C001773109067000366177310906700036605
:105BAC001773109067002364177310906700C34835
:105BBC00177310906700C348177310906700034762
:105BCC00177310906700C348177310906700E34B6E
:105BDC0017831090670023B917831090670083B662
:105BEC00178310906700A3B8177310906700237D7C
:105BFC00177310906700E37F6FA0E0270000000090
:105C0C0017F30E90670043F017F30E90670063F0E4
:105C1C006FA0E026000000006FA0E0240000000050
:105C2C0017930D906700C34E17930D906700A34A0E
:105C3C006FA0401B000000006FA0201F00000000A0
:105C4C006FA0E0220000000017930D9067004351F5
:105C5C0017930D906700234D17F30E90670043FBCD
:105C6C0017930D906700235117F30E90670003EB09
:105C7C0017F30E906700E3CC17F30E90670023CE5A
:105C8C0017F30E90670003D017230F90670023447F
:105C9C0017230F906700A34117D312906700A3FE40
:105CAC006F90801C000000006F90601100000000DD
:105CBC00177310906700E32C17731090670043273D
:105CCC006F90005C000000006FA0A00500000000B9
:105CDC006F90B075000000006F8050340000000021
:105CEC006F80102B000000006F803030000000002F
:105CFC006F80D030000000006F80702B000000001F
:105D0C006F80102D000000006F80305000000000EC
:105D1C006F803068000000006F80D04600000000EB
:105D2C006F80103000000000176315906700C3658A
:105D3C0017330F906700037917330F906700A37721
:105D4C0017330F906700A37517330F906700E37537
:105D5C0017330F906700C37717430F90670083DBEF
:105D6C0017430F90670083DF17530F906700C34AE8
:105D7C0017430F906700635A17430F90670003593E
:105D8C0017530F906700C36B17530F906700633264
:105D9C0017530F906700832D17530F906700033430
:105DAC0017630F906700A34317630F906700C3340A
:105DBC0017630F906700838B17530F906700237D39
:105DCC0017330F906700835A175315906700C3570A
:105DDC0017330F906700E35717330F90670063502A
:105DEC0017330F906700635D17330F906700E34C18
:105DFC0017330F906700234717930F906700C36109
:105E0C0017A30F906700C38417830F90670083C993
:105E1C0017A30F906700438717730F906700E35227
:105E2C00176315906700838517930F906700E367DE
:105E3C0017830F90670023BF17830F90670083C5EC
:105E4C0017930F906700436217730F906700834698
:105E5C0017830F90670023CB17930F90670003C530
:105E6C0017830F906700433117730F906700E34E51
:105E7C0017730F906700034617D312906700C3E1A6
:105E8C00178311906700C3C617831190670043C036
:105E9C00178311906700A3DC1773119067000370D0
:105EAC00178311906700A394178311906700E391F7
:105EBC00177311906700A36D176312906700637DD1
:105ECC00177312906700E3BA176312906700437C54
:105EDC00176312906700037C177312906700239E60
:105EEC00176312906700237B176312906700C37AC5
:105EFC0017731290670063BA17731290670043A769
:105F0C00177312906700039D177312906700E3A438
:105F1C00177312906700C39A177312906700A3A2AD
:105F2C0017731290670003B7177312906700C3AC16
:105F3C00177312906700A3B617731290670023A310
:105F4C001763129067002376176312906700C3756E
:105F5C00176312906700637417731290670003BD88
:105F6C00177312906700C3BA177312906700C3BB04
:105F7C00177312906700E3BA17731290670023F23D
:105F8C00177312906700C3BA177312906700E3EC93
:105F9C0017731290670023EE177312906700C3DF1C
:105FAC0017731290670083DF17731290670083DEFC
:105FBC00177312906700C3DD17731290670083F29A
:105FCC0017731290670003B517731290670043DDC7
:105FDC0017731290670083DB17731290670043B638
:105FEC0017731290670023B4177312906700C3B233
:105FFC00177312906700A3B2177312906700E3B186
:10600C0017731290670003B017731290670003B0F8
:10601C00176312906700836517631290670083659E
:10602C001763129067000366176312906700C364CE
:10603C00176312906700C3641763129067000365BF
:10604C001773129067006303177312906700630352
:10605C00177312906700432D177312906700432D2E
:10606C00175315906700C3EB174312906700632515
:10607C00176312906700E3BA17631290670023ACA2
:10608C0017631290670023B817631290670083C4DC
:10609C0017230F906700036017230F906700835A34
:1060AC0017230F9067006358173312906700432F24
:1060BC00175312906700A355175312906700034FA4
:1060CC0017531290670003591753129067004357E8
:1060DC00172312906700A3C5172312906700E36083
:1060EC00176312906700E3DA172312906700A30678
:1060FC00175312906700835E175312906700E3608A
:10610C0017631290670083C717631290670083C5EB
:10611C001763129067002394176312906700039F14
:10612C0017231290670083C117230F906700E35366
:10613C0017631290670063BC174312906700C3A4E7
:10614C00173312906700632A17331290670023F3FA
:10615C0017331290670063E917631290670063CEE0
:10616C0017331290670043F8173312906700235AC5
:10617C0017331290670043F4173312906700E34C07
:10618C001763129067008391176312906700039056
:10619C001763129067000394176312906700C39102
:1061AC00176312906700C394175312906700434C07
:1061BC00175312906700C35017431290670063582F
:1061CC00174312906700635817231290670003B6A9
:1061DC0017230F906700A3F417230F90670083F326
:1061EC0017230F906700E3F417230F906700A3F3B6
:1061FC0017230F90670063F517230F90670023F4A4
:10620C0017230F90670083F017230F90670063EF3D
:10621C00177311906700037F6F90B04A0000000065
:10622C0017731290670003E7177312906700C3F09F
:10623C00177312906700C3EF17731290670043F047
:10624C0017731290670083E717731290670043EC83
:10625C0017731290670043ED177312906700C3E534
:10626C0017731290670063E5177312906700C3EA07
:10627C00177312906700C3EA177312906700C3E894
:10628C0017731290670043E717731290670043E689
:10629C0017731290670043E5177312906700A3E21F
:1062AC0017731290670023DE177312906700C3E90F
:1062BC00177312906700C3E917731290670023E0FD
:1062CC00177312906700E3DF17731290670083DF78
:1062DC0017731290670043DF17731290670043DF48
:1062EC00177312906700A3EF177312906700C3DE49
:1062FC0017731290670083EB177312906700C3E556
:10630C00177312906700C3E517431290670063BEC2
:10631C0017431290670083F2174312906700A3E4AF
:10632C0017431290670063F7174312906700E36FEF
:10633C00175312906700231E175312906700838522
:10634C00175312906700E38F175312906700C3A680
:10635C0017531290670023C417531290670003D38E
:10636C0017531290670063DD17D3129067004392A6
:10637C00175312906700A3CB178310906700C38F3D
:10638C0017A310906700A392178310906700038ED9
:10639C00178310906700A389178310906700E3861A
:1063AC00178310906700E387178310906700A3860C
:1063BC00178310906700E383178310906700238482
:1063CC0017A3109067006394178310906700A3873E
:1063DC0017831090670063A4179310906700439184
:1063EC00179310906700839117A310906700639325
:1063FC00178310906700638417A310906700436F96
:10640C0017A310906700A3E217A31090670063E135
:10641C0017A310906700C36717B310906700A37D94
:10642C0017B310906700A34917B31090670043F59A
:10643C0017A310906700E37C17631190670023EAA1
:10644C001763119067000307176311906700832F80
:10645C00176311906700835E17631190670063EEFA
:10646C0017D310906700A39717E310906700835C15
:10647C0017D310906700E3A317D31090670083A67F
:10648C0017E310906700634617C31090670003452D
:10649C0017C310906700237E17D310906700A38753
:1064AC0017D310906700638D17E310906700834A31
:1064BC0017E310906700432017C310906700E3EEBA
:1064CC0017C310906700632C17E3109067004349C3
:1064DC0017E310906700C31717C30E90670083294A
:1064EC0017C30E906700232C17C30E906700032F61
:1064FC0017C30E906700233217C30E9067008335C5
:10650C0017C30E906700233917C30E906700E35032
:10651C006F409026000000006F40702F00000000BC
:10652C0017630D90670023746F40905900000000B2
:10653C006F00D011000000006F0070100000000010
:10654C0017C30E90670083E017130F9067002307A3
:10655C0017130F906700831517130F906700A3157F
:10656C0017130F906700C30C17130F906700830469
:10657C0017130F906700C31217130F906700831146
:10658C0017130F906700631017130F906700430FDA
:10659C0017130F906700032017130F906700C32287
:1065AC00177311906700E36F17130F906700E333B5
:1065BC0017130F906700632817C312906700E371DD
:1065CC00175312906700A37F17831190670043AE97
:1065DC0017831190670063B617831190670043A26D
:1065EC00177312906700A3D5177312906700A3D48A
:1065FC0017731290670043D4177312906700E3D39C
:10660C0017731290670003D36F4010550000000001
:10661C006F40701800000000177311906700630042
:10662C001773119067006313177311906700830839
:10663C0017731190670023146F4030130000000093
:10664C0017130F906700A31B17C312906700E36921
:10665C0017C312906700C36717C312906700A36833
:10666C002C0107000700170005020200FFFF0000C5
:10667C0001000000010000000100BC0DAC0D2C0E4F
:10668C00CC0D1000540BD40ACC0F2C0E0800282271
:10669C00CC192805D02E04010808B0260401CC0F13
:1066AC0007000C1B040110000C181000140A100039
:1066BC00740AD40B1000D40B540B0800682405008A
:1066CC00E4330401004006010A00000503000A003F
:1066DC000A00000500FC100732FC064C08000A00FA
:1066EC00020002000A00000060EA00001400000032
:1066FC00409C00000A00010001009700080A0000FD
:10670C0000000000587E1190FFFFFFFF000000000A
:10671C00286E696C29000000286E756C6C290000CD
:10672C00280000006E000000750000006C000000E6
:10673C006C000000290000000000000000000000B8
:10674C00C83E0300F63D03007631030072751690C7
:10675C006C751690CA1E0300421F0300E82C030040
:10676C00787516908A7516907C75169082751690B1
:10677C00010000000000000000000000000000000C
:08678C0000000087000000007E
:106794000001000064F812900102000078F81290E1
:1067A4000203000086F812900302000088F8129099
:1067B400020400002EFB12900405000006FB129058
:1067C4000504000008FB1290040200000000000011
:1067D4000200000092F812901C25000094110000A1
:1067E40000000000000000000000000000000000A5
:1067F4000000000000000000000000000000000095
:106804000000000000000000000000000000000084
:10681400000000000000000014AE040000000000AE
:106824000000000000000000000000000000000064
:106834000000000000000000000000000000000054
:106844000000000000008000000000087A0C000036
:10685400EEEF332B1D1CA2000D0000000001000010
:10686400A27C0100AD7C010001010000A27C0100BA
:10687400AD7C0100FFFFFF000000000000000000ED
:10688400FFFFFF000000000000000000D4000080B3
:1068940000500000CC000000030303003CA00100F2
:1068A40040A0010044A001007EA00100F6A0010068
:1068B40010A10100569F01005A9F01005E9F010034
:1068C400909F010008A0010022A0010050D4040000
:1068D40044D4040026291390322913905C2A13907F
:1068E400FC2A139000180400F4170400A2A101006C
:1068F4001AA20100000000000000000000000000D7
:106904000000000000000000000000000000000083
:1069140000000000101804000418040014A301006F
:10692400C0A3010024A40100B8A40100FFFFFFFFDD
:10693400FFFFFFFF060000001E00282300000000E8
:106944000000000000000000000000000000000043
:106954000000000000000000000000000000000033
:106964000000000000000000000000000000000023
:1069740000000000B012020000000000000000004F
:106984000000000000000000000000000000000003
:106994000000000000000000AE1202000000000031
:1069A4000500640002056400000000002D01DD0103
:1069B4005A02BB020A034D038703BA03E803110416
:1069C40037045A047A049804B404CE04E704FF0498
:1069D40015052A053E0552056405760587059705C4
:1069E400A705B605C505D305E105EF05FB050806B2
:1069F400140620062C06370642064D065706610685
:106A04006B0675067F06880691069A06A306AC06F1
:106A1400B406BC06C406CC06D406DC06E306EB06C4
:106A2400F206F906000707070E0715071C072207D9
:106A340029072F0735073B07410747074D0753072A
:106A440059075E0764076A076F0774077A077F07A9
:106A5400840789078E07940798079D07A207A7074D
:106A6400AC07B007B507BA07BE07C307C707CC070B
:106A7400D007D407D907DD07E107E507E907ED07E4
:106A8400F107F507F907FD070108050809080D08CE
:106A94001008140818081C081F08230826082A08C8
:086AA4002D0831083408380800
:106AAC00000000003880B7B70400AA85AA8403A5AB
:106ABC00070B9700F36FE78000782A8401C9A6863C
:106ACC000146A6859760F26FE780C07022853480FE
:106ADC003880B7B70400AA85AA8403A5070B9700D2
:106AEC00F36FE780C0792A8401C9A6860146A68582
:106AFC009760F26FE780006E22853480B7B7040090
:106B0C00AA8503A5070B1703F36F6700C3723880C0
:106B1C00B7B70400AA85AA8403A5070B9700F36FE7
:106B2C00E78060712A8401C9A6860146A685976014
:106B3C00F26FE780206A2285348017B3F26F67000A
:106B4C00E3DF588019E17D55548000416DFCB7B9E5
:106B5C000400AA8403A5090BB1459700F36FE780E5
:106B6C00806D88C06DD1EF10603E2A8909C98C40B8
:106B7C0003A5090B9700F36FE780E07380C04A858B
:106B8C00E1B738801DC12A840841EF100041B7B726
:106B9C000400AA840C4003A5070B9700F36FE78051
:106BAC00807126852320040034807D55F5BF188123
:106BBC0081CD36863AC4AE8632C658000146994518
:106BCC002AC2EF10404914817D55F5BF81456F10E5
:106BDC0060541880EF10C0560F00F00F148018800E
:106BEC00EF1080570F00F00F14806F1060586F106B
:106BFC00407505C11C413BF7071437B70400032748
:106C0C00C7FF5B17F7147827BB11070199E36F10C7
:106C1C00E05C7D558280288019C52A840841EF10DC
:106C2C008061232004002480AE8709C963C8050055
:106C3C00AA851395070141816F10B0227D55828082
:106C4C00AE8709C93BF40502AA851395070141815A
:106C5C006F1090227D55828001C508416F10F02283
:106C6C008280788201E5814426857482B7BA04005B
:106C7C002A8403A50A0BAE8991453689328A97007E
:106C8C00F36FE780405BAA8479DD2317010052CCB7
:106C9C0093070020CA866373F900BE86A9472316A2
:106CAC00F1002C0093070010480036CA3ECE22C4D7
:106CBC004EC802C2EF20602709C903A50A0BA6859E
:106CCC009700F36FE780205F79BF92479CC069BF44
:106CDC0009C50841A19D6F20A02D7D55828005C15D
:106CEC002880B7B704000041AA8503A5070B9700BD
:106CFC00F36FE780405C228520806F200016828035
:106D0C001880EF10604801451480288005C95C414B
:106D1C0095C71C4185E72A8448459700F36FE780A7
:106D2C00802E09CD48449700F36FE780C02D18449E
:106D3C005040A286894520806F10102E7D552480EE
:0C6D4C0001C50A216F1070467D55828041
:106D580018801306803EB94597B0F26FE780003679
:106D680001C51F0513130080148081CD9C4591CB6C
:106D7800DC4581CB19E99F07C8C604009C2391CB49
:106D880082801F051013008082801F050213008077
:106D980082801F0500130080828081CD9C4191CBA9
:106DA800DC4181CB19E99F07C8C604009C2391CB1D
:106DB80082801F050913008082801F05021300804E
:106DC80082801F0500130080828058803DE99387E8
:106DD800F5FF1F073FE13300636DF7041F04C8C6C2
:106DE80004001C20B9EB3B771608AE848545328930
:106DF800012491469F09D0C60400B68501464E85F8
:106E08009760F26FE780403D4E85F533A6859F0673
:106E18009A1A04004A8601450D28AA8409C54E8598
:106E2800ED3B2685548085471CA01CB02301240116
:106E3800CDBF9F0405130080EDB79F0401130080A8
:106E4800CDB79F0402130080E9BF78802A8AB284F4
:106E58002E8441225285312A52852D2A931A2A00DE
:106E68009F0968CA040033863A01C92093E71704CA
:106E78006D28BD9B5D2893E707209CC29F07A086CD
:106E88000100014963F887001F09801A0600333999
:106E9800890005095285B9223307A40033578702B0
:106EA8009F07F41E04009B8727059E239385E70010
:106EB80063F1E5080D8F93561700158F9385F7FF3B
:106EC800B6951907B3865901A19D9C42219F41742B
:106ED80063140906945BE18E558F98DBD45B33F716
:106EE80086004D8FD8DB3386590118429306190066
:106EF8008D8A1C43E59B9BA7D7021CC3BB140902C0
:106F0800184213F674001C4FE19B5D8E10CFB387B7
:106F180059019C4352859F05841E0020D84313675E
:106F28001700D8C38120014574809CC214429C423A
:106F380082800147814659B73B160901D45FE18E2B
:106F4800558FD8DFB043337786004D8FB8C361BF04
:106F5800F443E18E558FF8C3A847337785004D8FEA
:106F6800B8C751B79F0758CA04001B85A7040CC1AE
:106F780082800A059F0768CA0400AA9798435C4361
:106F8800F99B5CC39F0758CA04003E95232005005F
:106F9800014582809F075CCA0400DB97A70A214746
:106FA800FAA3DAA31147BAA30D479AA39F0768CAA1
:106FB80004001B85A7041C41F84B137707F01367DF
:106FC8004700F8CBB84B137707F013673700B8CBF7
:106FD8008280B727002083A747FC1F0768CA0400E0
:106FE8001CC3828001E505456F00E14601458280AA
:106FF80011C9BB150501E14713B515001505BE8577
:107008006F00E145DD47CDBF828058802A89BB7F6C
:1070180005038DCD1F04D4C604002A941C20014703
:1070280085E7AE848545B289F52C1F05D8C60400CE
:107038001B052505C93681464E86A6854A859120B9
:107048002A8719E185471CA03A8554801F0701004B
:107058000080DDBF48809F0480CA04000144137982
:10706800F40F112819C9012888C0050491043B1C94
:10707800F403014544804A85B1AC1F0543100080E4
:10708800D5BF8880AA8A2E843289E937AA89631FE6
:1070980005221C209DC385450D28484497B0F26FF2
:1070A800E780A04B83470402BB890707BB88071FFB
:1070B8009F09301300804E858480814539204844DB
:1070C80097B0F26FE7808049F1BF568519AC442C20
:1070D8003BF8F4063B920402E30C09FC1C2CBBF4BD
:1070E800F70383474402BBF2F7041C283BF1F7027D
:1070F8005C28BBFFE7028347C402BBFDE7021C20F4
:10710800638907181C4CBB8AE70181455D2A1F0A61
:1071180080CA0400139B2A00B3046A019C40568568
:1071280023A207009C4023A607004C2C97B0F26FBF
:10713800E780002E144C49221D568D8A9BC7C7DA5A
:107148009BA7D72C5CC35448852A858ADD9B9BA7BF
:10715800D7065CC314488D22858ABD9B9BA7D70898
:107168005CC31450912A0156FD8A9BC7C7E69BA7AA
:10717800D71A5CC39C401850D4433D8B93F6F6E174
:107188001BA7E60AD8C35450052A1D568D8A9BC7EB
:10719800C7E29BA7D7245CC31C4C3B9507024C5005
:1071A800BB930501568597B0F26FE780E011B307EE
:1071B8006A0198438327C70CD9472326F70C8326EF
:1071C800870D232CF70C1C20A5EB5C40014689C7D2
:1071D800FD1705463316F6008326870C931706011C
:1071E8004176C183F18EDD8E2324D70C54449F054C
:1071F80040420F005C4BB385B6021444B3D6B602C6
:10720800BBF106028946A19EF18FD58F5CCB1C2C61
:107218003B96070285455685ED2033076A0183278B
:10722800C90018432328F70E0C54D1C9FD155685FB
:1072380097B0F26FE7802006B3076A019843545469
:1072480085455C43858AED9B9BA7D7045CC395283D
:107258008145568597B0F26FE780C04319C1232056
:107268000500930600033385DA029F078CCA0400E1
:1072780022863E9511281F051CCB0400C1464A866C
:107288001B055509112005BDB6851763F26F670008
:10729800C37B032A4400568597B0F26FE78000410C
:1072A8000505E36745E15C44FD1781E43BE697305B
:1072B80001B5BBE49760EDBB98405C438280814593
:1072C800BDB7568517B3F26F670083FE9F09311368
:1072D8000080D5B39F07D81F00201B85A70408414D
:1072E80082808547370700523395A7008327877226
:1072F80089E55D8D2324A77282801345F5FF7D8D76
:10730800D5BF85471105370700523395A700832756
:10731800877289C55D8D2324A77282801345F5FF86
:107328007D8DD5BF38803B0305010DC13B070502A4
:107338003480C94413B415001504EF00A128A685AC
:10734800228530806F00A111CD44EDB7C544DDB76B
:1073580018800147814601469F05AC4A0400130581
:10736800F004EFF01F859F075476119083C5F7044A
:107378001305F004EFF0BF871305F004EFF0BF85A5
:10738800B7D7025723A00794054723A0E7941D47C2
:1073980023A6E79414806DBFB747005723920722AE
:1073A8007D572390E722B7C70257239C071E7D47C6
:1073B8002392E71E239CE71E2398071C85462396E5
:1073C800D71C2398D71C2398071E2396E71E6D47C2
:1073D8002398E71E828058803B702508B5CD2E89FA
:1073E800AA8997A0F26FE780205D1F071020002070
:1073F8000043AA84631CE402268597A0F26FE78005
:10740800205D81457145EFF02FEAAA8431C9230434
:10741800350131051D2897A0F26FE780E0595C40DF
:1074280089CF44C080C0DCC084C301A81C24639CED
:1074380037011305C4001128268597A0F26FE7804D
:10744800205901455480004075B7C1464A86B68523
:107458001763F26F6700635F1F0501000080DDB7E7
:107468001F0505000080F9BF05CD18419F0758D1B9
:10747800040098C35841D8C3184598C75845D8C779
:10748800184998CB5849D8CB184D98CF584DD8CFD4
:10749800185198D35851D8D3185598D75855D8D784
:1074A80082806880BB793503BBF8350779CE1C46E6
:1074B800E9CF32842E8AAA891F091820002097A0B4
:1074C800F26FE780604F83270900AA84C1171387EA
:1074D80007016313E904268597A0F26FE780404F00
:1074E80061459520AA840DC523003501A3004501F7
:1074F800B1462286110569209C44BDC34840050554
:107508009920C8C031E5268597A0F26FE78080B141
:107518001F05050000802DA09823631437039833B6
:10752800631147035840C84398C71844D8C7544004
:107538001040B920268597A0F26FE7806049014581
:1075480064809C4B61B7814517A3F26F670003AE57
:10755800544010403520D8405C40BA97238007003B
:1075680097A0F26FE780404583274900E9D7138742
:1075780004012322E90023A82401DCC898C365BFBD
:10758800B6851763F26F6700434C1F050100008042
:1075980045BF28801F0440D10400E1460146B68556
:1075A80022859760F26FE78020C3A5473EA4248018
:1075B8009F0704D104008A23130715009AA3828029
:1075C80018800145212010806F50717228812C008D
:1075D8002A84EF60013BA247B7F6FFDF138706E076
:1075E8003E971F06000C00006369E6023247938647
:1075F800F6DFBA96BE966362D6029F0618D10400DB
:107608009CC222859F0714D1040098C3EF6081397A
:107618009F071CD1040088C324819305D0112545F8
:1076280097A0F26FE78000A1C5BF25732025643AB3
:10763800206F616C5F696E745F6372656174652049
:107648007265743A307825780A0000000707070643
:1076580007070707070707060007070707070707BA
:1076680007070707070706060506060606030306B3
:1076780000000606060406060606040000060606BE
:1076880006050505060606060606060601010106A4
:10769800060206060606060606060006060606068C
:0876A8000606000603000000C5
:1076B0009B37A5BE1B95A7BE8280AA8798233B0750
:1076C0000720930677FF3BE506053B05072BBB1B11
:1076D000072D85468507014509A88507C5B7814659
:1076E000D5BF5B15A00A8507198D9823130707FDE1
:1076F000BB6CF70A99E23305A04082808146E1BF66
:10770000788A37290020832749E42E842AC63ECF71
:107710002ADCFD578145AA842800B289368ABA8AB4
:107720003EC8BD22D28656870546CE852800792CD4
:1077300001C86257B247998F6657BA97A6971CC07F
:10774000FA47032749E46386E70097F0F26FE78082
:10775000E0C8748AFD567D5765B72A88AE86B28721
:107760006304B504F958B30816033387A540118F95
:1077700063E6E80017A3F26F6700C38933C7A5006B
:107780000D8B6374B5042A860DC7B297630DF6009E
:107790006F036000E5BF850603C7F6FF0506A30F6C
:1077A000E6FE028381E7C286368582806FF3BFFEE4
:1077B000FD17137736007DF7BBE4F7049842F11705
:1077C0001106232EE6FE9106C5BF19EBB305C500D1
:1077D000369613F73500B307D64001EFBBF907041F
:1077E000F9D3FD173387F60018233306F80018A2E3
:1077F000C5BFFD15E389C6FA8347F6FF7D169CA138
:10780000C9BFF1173387F60018433306F80018C2D2
:10781000F1B71DC2930615002A9603C7F6FF9C21F7
:1078200019C791C76385C60085066305F700330550
:10783000F74082808505D5B701458280AA8501C9B8
:107840001F05002D00201703F36F670083A78280B8
:107850003880868401441DC92A849700F36FE7802D
:10786000009EBB03050126859700F36FE780009D0E
:10787000A2851F05002D00209700F36FE780609C14
:107880002A8409E59700F36FE780409B22853480C6
:1078900058411C596CD5998F3CD91C4581C9B38678
:1078A000E74063D5D5002E9738D582803CD58280BD
:1078B000388018595C412A84998F3859B384E7007D
:1078C0007C5589CF63CCF400544018587D5534D48E
:1078D000158FB30797003CD868D4348022852528BB
:1078E000E34405FE7C54138714001444504095C3B0
:1078F000998FB385C64063DEB700B2973CD4145865
:10790000B387C6403E9738D8E3E9C6FCA30FA6FE6E
:10791000E9B734D4EDB73881B724002083A744E415
:107920002A843EC6912819C97D55B24703A744E46D
:107930006381E70297F0F26FE78040AA1C5005468A
:107940009305B100228582973B18F5010345B100EC
:10795000E9BF3481188097F0F26FE78020A909E928
:10796000EF10401E9F072CEC04001B85A704148019
:107970001F056CEC0400E5BF288078452A84930736
:10798000F7FFD98F7CC5584D5C496386E7005C5191
:1079900001468145829781471CC85CCC5CC81C406D
:1079A00013F7470011C713E5070208C07D5524806F
:1079B000139707017D55E34C07FE085858583A9530
:1079C00008C448C01395B7017D85D5B7D8812A84EE
:1079D000AE893289B68CBA8A3BF205253B93050104
:1079E0000D2ED9471CC161A844402C54638CB404AB
:1079F000938514004CC084203B8CF420938774FF43
:107A00003BEAF705938554FDF599014C99E9938478
:107A100034FD93B41400330C9040C92C6387B70233
:107A20009D22638E09303B920910BB890430B52832
:107A300063E935077C5463C507005C40FD175CC0F3
:107A4000A12879BF552CAA8445BF7D24AA84D1BF23
:107A5000712C6389B702052A93E70402BB9017785B
:107A600071246384B70205228920BBEA45107C5447
:107A700063C4072C5C40630D0900F9175CC0014525
:107A80008145D481952CAA84C1BFBD24AA84E9BFB5
:107A9000FD175CC01120E5B781452285D5BB638306
:107AA00009183B9D390A014939A89F05547D119059
:107AB000A6958C3182805B99240B130909FD3D2426
:107AC0006385B70AC920938704FDBBF3070A9F07A4
:107AD00098999919E3F127FF014A938504FD3BF535
:107AE000150A9F079999991963ED47036317FA00DF
:107AF0009F079999999963E62703A947B306FA0264
:107B000013C5F5FF3307F902B337F902B69793D6D9
:107B1000F54113C6F6FF6366F600639BC7046379FD
:107B2000E5041F0B547D1190B3059B00593763E1A9
:107B3000351B6C5463C505004C40FD154CC0636F8C
:107B40005A1D63944A01636B991D93F41C0063975B
:107B5000041A63150C1A752A752A1385FCFFB33CA9
:107B600095019385FAFFE69529BF7922AA84A1BFE2
:107B70003309B700333AE900B6973E9A852A6388FD
:107B8000B700112099BF938517004CC051A8AD22B2
:107B9000AA84A1B7C1491389F9FF337939019F0D2F
:107BA000547D1190631D0910DD45B385B9029F070F
:107BB0004A7D119095819D89BE9583CB0500B38543
:107BC0009D00C53D63F63501B7070008636EF904F3
:107BD0005E867D55FD55EFC0A06E014A2AC62E8DEA
:107BE000B3879D0003CB1700E37D3BF3E36B4DF3BD
:107BF0006315AA01B247E3E627F34A85D2855E867C
:107C00009790F26FE78080925C4038543369AB0004
:107C10002E8A6387E7021387170058C01120C9B75F
:107C200084238280A14985BF331979013369B90062
:107C300075286384B700813F59B77D28AA8441B76E
:107C40006528AA8471BF338929032E99452063854D
:107C5000B706153FB3859D00A93D63F735019F0722
:107C6000C6711C07E3F127FF014AB3859D009831D7
:107C7000E37937EB33363903B3864903630B0A00E4
:107C8000B387C600B3B7D700B3B54903BE95E39A2F
:107C900005E8B296B38729031346F7FF3B9206FF28
:107CA000E361F6E83389E700333AF900369A3D2874
:107CB0006389B700C93D55BF8120AA8461BF0149CE
:107CC00051BF1D28AA8455B715206384B702653DAE
:107CD000DA948C30E3EA35FF2D282D2893F41C002C
:107CE0006689568AE38704E4014CA1B55C402C54B4
:107CF00082801920AA84E9BF22855DBE63E64A011D
:107D0000631E5A0163FC2C01292029206685D68533
:107D10008DBB89B19304200204C182809357FC413A
:107D200033492C01B3C54701330589413339A900D3
:107D30009D8DB3852541B1B3E31309D4A1BB93074E
:107D40000003E387F4D0A949DDB100010204070371
:107D500006050000FFFFFFFFFFFFFFFFFFFFFFFF24
:107D6000FFFFFFFFFFFFFFFFFFFFFFFFFFFFFFFF23
:107D7000FFFFFFFFFFFFFFFFFFFFFFFFFFFFFFFF13
:107D8000FFFFFFFFFF00010203040506070809FFCC
:107D9000FFFFFFFFFFFF0A0B0C0D0E0F1011121358
:107DA0001415161718191A1B1C1D1E1F202122231B
:107DB000FFFFFFFFFFFF0A0B0C0D0E0F1011121338
:107DC0001415161718191A1B1C1D1E1F20212223FB
:107DD000FFFFFFFFFFFFFFFFFFFFFFFFFFFFFFFFB3
:107DE000FFFFFFFFFFFFFFFFFFFFFFFFFFFFFFFFA3
:107DF000FFFFFFFFFFFFFFFFFFFFFFFFFFFFFFFF93
:107E0000FFFFFFFFFFFFFFFFFFFFFFFFFFFFFFFF82
:107E1000FFFFFFFFFFFFFFFFFFFFFFFFFFFFFFFF72
:107E2000FFFFFFFFFFFFFFFFFFFFFFFFFFFFFFFF62
:107E3000FFFFFFFFFFFFFFFFFFFFFFFFFFFFFFFF52
:107E4000FFFFFFFFFFFFFFFFFFFFFFFFFFFFFFFF42
:107E5000FFFFFFFFFF000000000102020303030316
:107E600004040404040404040505050505050505CA
:107E700005050505050505050606060606060606AA
:107E80000606060606060606060606060606060692
:107E9000060606060606060607070707070707077A
:107EA0000707070707070707070707070707070762
:107EB0000707070707070707070707070707070752
:107EC0000707070707070707070707070707070742
:107ED000070707070707070708080808080808082A
:107EE0000808080808080808080808080808080812
:107EF0000808080808080808080808080808080802
:107F000008080808080808080808080808080808F1
:107F100008080808080808080808080808080808E1
:107F200008080808080808080808080808080808D1
:107F300008080808080808080808080808080808C1
:107F400008080808080808080808080808080808B1
:107F500008080808080808083881B724002083A703
:107F600044E42A843EC61DC9280097E0F26FE780EA
:107F7000402D224593074400232004001CC45CC00C
:107F800097F0F26FE780C0720145B24703A744E45F
:107F9000638AE70097E0F26FE78040441F05061C04
:107FA0000002E5B734813881B724002083A744E478
:107FB0002A843EC629C1280097E0F26FE780602836
:107FC0001C44130744006394E70223200400014487
:107FD000224597F0F26FE780A06DB24703A744E413
:107FE0002285638EE70097E0F26FE780203F1F0451
:107FF000081C0002F1BF1F04061C0002F9BF3481F7
:108000001880EF10405F0145148048802A842E8933
:1080100097F0F26FE78040684C4023200400AA8468
:1080200089C9B7B7040003A5070B97F0F26FE78083
:10803000402981475CC01CC49F07F4AF04009C43E7
:10804000DC4791E711281F050109000244804A8599
:10805000829719200145DDBF268517F3F26F67006F
:1080600023658880AA8ACDC21F0AF4AF0400832743
:108070000A00D9CBDC4FC9CBBA89368432892E8B22
:108080008297AA8451C542091359094163460908D8
:1080900097F0F26FE78040609C402A898DEF80C0A6
:1080A00063800904B7B7040003A5070BB14597F037
:1080B000F26FE78000192A8419C53146CE85979062
:1080C000F26FE78020F5C0C001EC15281F040309FA
:1080D0000002228584802D201F0404090002D5BFE0
:1080E000392883270A0001449C4BE5D7DA85568559
:1080F00082972A8479DDD6852685013FD9BF4A85B6
:1081000017F3F26F6700C35A1F0401090002D1B7C9
:108110001F040009000275BF1F040909000255BFB2
:1081200028809F07F4AF04009C432A8481CBDC4F56
:1081300091C7829701C9A2852080C1BD1F05010991
:10814000000224801F0500090002E5BF9F07F4AF6D
:1081500004009C4381C79C4791C382871F05010986
:10816000000282809F07F4AF04009C4381C7DC4774
:1081700091C382871F050109000282809F07F4AF27
:1081800004009C4381C79C4B91C382871F05010952
:10819000000282801880AA8711C997F0F26FE780E9
:1081A00040E7AA873B0205FF930715003E85108034
:1081B0006F00D06C9F07FCAF040098439F0600B08F
:1081C0000400D4C294C28145230707009C420CCB13
:1081D0008505D0431CC350C3D04318C2D8C3510730
:1081E0003B9AF51401458280288021C92A8497F0A2
:1081F000F26FE780604A1F0700B004005C43639A97
:10820000E70097F0F26FE780A04A1F05031D000208
:108210002480D443984398C2984354C30147854669
:10822000DAA7F4A798C7DCC39CC39C4B1CC097F08B
:10823000F26FE780E0470145E1BF1F05021D000224
:10824000C1BF2880BB7615149F07FCAF0400804394
:108250005B14A41497F0F26FE78000447C2485CB74
:108260005C40631AF4025E249DE77CA49F0700B083
:1082700004009C43D8431CC058C0D84300C3C0C3AB
:10828000014497F0F26FE780A042228524801F040A
:10829000011D0002FDB71F04091D0002DDB71F0408
:1082A000011D0002DDB72880378411901305A42C2E
:1082B0009790F26FE78080E5AA8505461305A42C08
:1082C00020801793F26F6700E3654F7574707574C3
:1082D00020696C6C6567616C20737472696E6721CC
:1082E0002076736E7072696E74665F732066616962
:1082F0006C6564210A004F73567072696E74662C47
:10830000206D616C6C6F63206661696C6564210A25
:1083100000009F0740B0040098439F0638B0040057
:10832000D4C294C2130707028145230207FE9C4270
:108330002326B7FE8505D0431CC350C3D04318C2C3
:10834000D8C3130707033B99F50A0145828078805B
:1083500055CEE9C161C393064700B3B7D502DDEF3F
:10836000AE84B385D502B7BA040003A54A0BBA8917
:10837000328997F0F26FE780C0EC2A8A45C597F002
:10838000F26FE78060319F0738B00400C04363118B
:10839000F40297F0F26FE780A03103A54A0BD28573
:1083A00097F0F26FE780E0F11F0504060002748089
:1083B0001C4054409CC21C40D4C385472302F4FE99
:1083C000930784FF232EF4FE232CF4FE93078400EE
:1083D0005CC41CC4231394FE231434FF232044FFE5
:1083E000A30204FE231A04FE231B94FE231804FE9A
:1083F000231904FE40C000C097F0F26FE780402BC5
:108400008327C4FE01452320F90055B71F050C063C
:10841000000271BF1F050D06000251BF1F050306B4
:10842000000271B71F050206000251B75880BB78E1
:10843000250A9F0740B0040080435B14A43097F0E6
:10844000F26FE78060255C20AA89BDC75C4C1307EA
:1084500084016397E7065C50930404026392F40678
:108460005C5413078402639DE7045A287E28BA9758
:108470007A20639BE7045C30014999EBB7B70400AD
:108480000C4003A5470B97F0F26FE78080E32A8941
:1084900081475CA01CC09F0738B004009C43D843B0
:1084A0001CD058D0D84304C3C4C34E8597F0F26F94
:1084B000E78000204A8554801F090A060002F5B7AC
:1084C0001F0908060002D5B71F090B060002F1BFFD
:1084D0001F0905060002F9BF5880E5C5BB7B350AB8
:1084E0002E842A8913068002814522859790F26F97
:1084F000E78040B39F0740B00400844397F0F26FD9
:10850000E7808019AA89DB942431DC20DDC7FE20B6
:108510002320240103A9C4015EA09E247EA09E28DE
:108520001EA4BE283EA4DE287EA4FE285EA4492008
:10853000138784016398E70203A9440295281387EF
:108540000402639BE70203A9C4029D2013878402EF
:10855000639EE70201444E8597F0F26FE780401575
:108560002285548035281C48032909035D8D5C4809
:1085700008C8DD8D4CC865BF25201C4C03290903A4
:108580005D8D5C4C08CCDD8D4CCC4DBF11281C5052
:10859000032909035D8D5C5008D0DD8D4CD075B783
:1085A00003264901054581451783F26F670003F8EB
:1085B000130949FD9307C90282801F040A060002BD
:1085C00059BF1F041706000261BF1F040E060002F8
:1085D00041BF488029CE32842E89AA8497F0F26F59
:1085E000E780800B1F0748B004005C43639AE700F4
:1085F00097F0F26FE780C00B1F050307000244806D
:108600009843D44398C2984354C30547238CE7FE4C
:10861000A38C27FF239D97FEDCC39CC383A7C7FFC2
:108620001CC097F0F26FE780A0080145C9BF1F0585
:1086300002070002E9B79F0744B0040098439F0671
:1086400048B00400D4C294C221078145230C07FE20
:108650009C42232EB7FE8505D0431CC350C3D04394
:1086600018C2D8C34107BB99F50A01458280C1678A
:10867000FD172E866304F5008145A1BF1F0508077D
:10868000000282802E863B720502854599B71F0540
:1086900008070002828028803B77150A9F0744B0B4
:1086A000040080431B04A40897F0F26FE780C0FE2B
:1086B0001C208DCB5C44130784006319F702230050
:1086C00004009F0748B004009C43D4431CC454C416
:1086D000D443014498C2D8C397F0F26FE78040FDBD
:1086E000228524801F0401070002FDB71F0409072B
:1086F0000002DDB71F0401070002DDB70CC1CCC1C9
:108700008CC182809C411F07CCCCCCCC6393E70208
:10871000910563E7A5000D8D19E908C20145828026
:108720009C411F07CACACACAE384E7FEEDB7110518
:10873000EDB7FD571CC205458280488237290020CD
:10874000832749E49F065CB00400D4C23ECE9F0755
:1087500058B004009C4394C20146984292AB05066F
:108760004C4398C3219ECCC34C439CC15CC39387AC
:1087700047023B1AF62881473EC49F07466C040017
:108780003EC29F07000800003EC81F0408B0040056
:108790009F07408A119001483ECA50C893070010B5
:1087A0004C000A8542C63ECC7927AA840DED37B726
:1087B00004008247032787079F0564B004001CD488
:1087C000DB17F75C9847130584001367270098C7E9
:1087D0003537F247032749E42685638AE70097E0A7
:1087E000F26FE780A0BF9F040C030002DDB7448254
:1087F00028807C252A848DE75C3589C7F917819FFD
:108800003BF807021C4C37B504001CC4A2851305B5
:10881000050197E0F26FE78060358D475CA4248006
:108820005C48D5B788803DC93BFF150341C2D9C21A
:10883000BA8A368AB2892E8B2A8997F0F26FE7803E
:10884000A0E59F075CB00400C043631AF40097F0F2
:10885000F26FE780E0E51F050403000284804440D6
:108860001C409CC01C40C4C3814444C004C097F059
:10887000F26FE780E0E389475CA41E2823203403DD
:10888000A306640164A4232A2401232C2401232E9B
:10889000540104C42310FA000145C9B71F050103A0
:1088A00000026DBF1F05020300024DBF1F0500033C
:1088B00000026DB71F05030300024DB748802A84EC
:1088C000AE8497F0F26FE78020DD2A89228597E059
:1088D000F26FE780A0482A8419E515201F040503DC
:1088E0000002228544805C25BB8E07023BE1170213
:1088F0003B8607031F040E0300021120DDB74A85E3
:1089000017F3F26F6700C3DAAA8537B504001305C1
:10891000050197E0F26FE780002989475CA42307EF
:10892000040099C044C804CC2285D9350144F1B76C
:108930001F0406030002D1B70146814541B73880C4
:108940002A8497F0F26FE78020D5AA84228597E0E9
:10895000F26FE780A0402A8419E535201F04050343
:108960000002228534805C253B850702BBE01702AC
:108970003B8807031F040E03000221A01F040D0300
:1089800000021120F9BF268517F3F26F670043D26A
:10899000AA8537B504001305050197E0F26FE7805B
:1089A000802089475CA4230704000144D9BF1F0429
:1089B00006030002F9B748802A8497F0F26FE78037
:1089C000A0CD2A89228597E0F26FE78020392A849A
:1089D00019E515209F0405030002268544805C25C7
:1089E000BB8D07023BE517023B8607039F040E037E
:1089F00000021120DDB74A8517F3F26F670043CB01
:108A0000AA8537B504001305050197E0F26FE780EA
:108A100080192307040085475CA47C348144F1FB62
:108A20009F075CB004009C43D8431CC058C0D84387
:108A300000C3C0C344A475BF9F040603000255BF12
:108A40005377745F5461736B00009F077CB0040020
:108A500023A007000145828028809F0784B004007E
:108A60009CC3DCC39F0778B0040098439F0670B096
:108A70000400D4C294C21307C70201448547231CD3
:108A8000F7FC9C42232487FE0504D0431CC350C33B
:108A9000D04318C2D8C31307C705BB18F40FEF00A3
:108AA000F01E9F0590B004001F0508B00400B93106
:108AB0009F0780B0040080C30145248028801C45A6
:108AC0002A8463CB0700B7B704000C4903A5470B02
:108AD00097E0F26FE780E07E9F0770B00400D44318
:108AE000232804001307C40214D85CD498C2D8C346
:108AF00024803881B724002083A744E428003EC6A0
:108B000097D0F26FE780E0739F0784B00400C04302
:108B10006310F402224597F0F26FE78060B9B24724
:108B200003A744E4638FE70097E0F26FE780008BD0
:108B3000228597E0F26FE780C023130544FDBD3F17
:108B4000E1B73481B7C7040083A7076999C3C84B4D
:108B500082801F05070200028280B7C7040083A736
:108B60000769014591C3885782807881B72A002020
:108B700083A74AE4AA892E843EC663050516638747
:108B800005169C49638807169C4163890716DE21F8
:108B90003BFD5720B7B7040003AA470BDC4589E724
:108BA0009F0700080000DCC54444528597E0F26F3F
:108BB000E7804076636C95144844952848C4AA849D
:108BC00013050020AD2063E7A4145C441307F010E4
:108BD0006372F71495201F0970B0040083244900C4
:108BE000638A240F938744FDF5CB268597E0F26FC7
:108BF000E780201805284C445285414697E0F26FE3
:108C0000E780A0682A8A15ED05288327490023A05C
:108C100024011F0400020003DCC084C32322990046
:108C2000112079A8224517F3F26F670063A8C145A8
:108C300017E3F26F6700A386280017D3F26F67006F
:108C400043602A864C4403A584FEEF0030511C4447
:108C5000184023AAA4FC23ACF4FE5C4423A244FFE6
:108C600023A804FE23A0F4FE5E2023A6E4FE1387BF
:108C70008401D8CC98CC1848239DF4FC8147DCD4DF
:108C8000DCC89CD09CD4854723AEF4FC23AA04FE08
:108C900023AEE4FE9307000081CFB7C7040083A78B
:108CA000076903A584FECC4B97000000E700000095
:108CB0008947239CF4FC83A784FE014423A0F90088
:108CC000B24703A74AE42285638AE70497D0F26F8C
:108CD000E780C0701F041102000299B71F0401024F
:108CE00000023DBF1F0407020002D9BF1F0401029A
:108CF0000002F9B71F0405020002D9B71F040402DD
:108D000000027DBF1F04030200025DBF1F0420029A
:108D100000027DB71F04060200025DB7748148811E
:108D20009F0478B00400372900208040832749E45D
:108D30005B14A45C3EC61C44898B63910712280017
:108D400097D0F26FE780E04FCD2813F71700631339
:108D5000071013F7070115C39F0708B004009853C5
:108D600029C70547D8D71F040B02000311205DA0B7
:108D7000224517F3F26F6700A39313F747004DC71F
:108D80001305C40297E0F26FE780405D7D20ED9B04
:108D90005EA0652093F7070A91C7228597E0F26FDE
:108DA000E78020015928F59B5EA0412813E61700B3
:108DB0007D5752A038C023260404C18BD1C71C4460
:108DC00063CE07009F0784B004009C431307C402CE
:108DD000D4435CD414D8D44398C2D8C39F0780B07E
:108DE000040098409C43DB17F75C5848D2A3D8CBCB
:108DF000184898CB185498D785475EA097D0F26F43
:108E0000E780C05E0DCD9F0708B004000947D8D7A2
:108E100085370144B247032749E422856384E70488
:108E200097D0F26FE780805BA18BA5D71305C402B2
:108E300097E0F26FE780E0F3A9BF5E20828097E0C1
:108E4000F26FE780E05AE9B785475EA02285BD3121
:108E5000014429BF1F040A02000209BF1F041402B3
:108E600000024DBF44819F0780B004009C4363749F
:108E7000F50081456DB51F0507020002828048811B
:108E800037290020832749E43EC69F0780B00400AD
:108E90009C43637DF5089F0778B0040080435B1412
:108EA000A45C280097D0F26FE780A0395E20A2442E
:108EB00013F7170025E713F727002DC713F7D7FF80
:108EC00093F78702219F91CB5AA0014411202DA82E
:108ED000268517E3F26F6700A37D6E2013674700B6
:108EE0005AA005461305C40297E0F26FE7802043BD
:108EF000C5379F078CB004009C430144858B89C70C
:108F000097D0F26FE780A034B247032749E4228567
:108F10006382E70297D0F26FE780404C1F040A0299
:108F200000026DB71F04090200024DB71F040702BB
:108F30000002D9BF448128802A84053901E5084010
:108F4000208035BF2480288237240020832744E4F2
:108F500023270100232B01003ECE9F07B66E04009D
:108F60003EC2930700603EC837B504009F070A92CF
:108F700011903ECA4C00FD47130545022325010010
:108F8000231D01002314F1007D3719ED9F0708B060
:108F900004001F0778B004001843DC4FDB17F75CB0
:108FA00098471367270098C7F247032744E463866E
:108FB000E70097D0F26FE780604224825881B7299A
:108FC000002083A749E4AE843EC63BF625209F07D8
:108FD00080B004009C43637AF5089F0778B00400D2
:108FE00080435B14A45C1C44898BC1E7280097D0A4
:108FF000F26FE78000255E2013F7170031EF13F7BB
:10900000470031C71309C4024A8597E0F26FE78031
:10901000E034054666A0A6854A8597E0F26FE780B2
:10902000003005448144224597E0F26FE7804068B4
:1090300009C497D0F26FE7808021B24703A749E4C3
:109040002685638CE70297D0F26FE7802039918301
:1090500066A013F41700F9B701449F040A02000246
:10906000D9B79F0403020002C9BF9F040702000290
:10907000E9B79F0414020002C9B754814881372917
:109080000020832749E4AA843EC697D0F26FE78088
:10909000E0352DE5B7C7040003A407691C44898B9C
:1090A000B5E397E0F26FE780E0CD2DC191EC97E05A
:1090B000F26FE78040E5B247032749E4638CE70499
:1090C00097D0F26FE7808031280097D0F26FE78069
:1090D0004017A685228597E0F26FE780A0CC5E203E
:1090E00093E707025EA097E0F26FE78060302245C9
:1090F00097E0F26FE780C05B014575BF1F050D0269
:10910000000355BF1F051402000275B71F050E02AC
:10911000000255B744815881B729002083A749E44C
:109120002A892E843EC6F9C59F0780B004009C435F
:109130006376F50C9F0778B004008443DB94A45C4D
:10914000280097D0F26FE780C00FDE2013F71700DA
:1091500011CF61281F050A020002B24703A749E4A4
:109160006382E70A97D0F26FE7804027C18BBDE7A3
:109170009C407CC4DE203146938504045EB0FE2012
:10918000130504037EB0DC443CC09C487CC097803F
:10919000F26FE78020E8FC449054FD465CDCDC4C38
:1091A0009305000222851CD49C50232024035CD408
:1091B0009750F26FE780004DDC4488486C401306FE
:1091C00044053E957C44419928C4B307F5403CC80A
:1091D000EFF04FD328CC1128014541B797D0F26F5B
:1091E000E780C02051F58A8769B7224517E3F26FFF
:1091F0006700034C1F050102000285B71F05070227
:109200000002A1BF54810145828049646C65436FAF
:1092100072653030300018809F0798B004009C437E
:109220001307703E6378F70097C0F26FE78080788D
:10923000014514801F0500040002E5BF38802A8420
:1092400015CDAE842E8681459780F26FE78080DD54
:10925000938744FF18481CC49385C4FE9D579BC543
:10926000F5CAB7070080F98F9306C400CD8F14C0EC
:10927000232604001CC854C0054534800145F5BFB1
:1092800041112A8722C626C4054505C79DC15C43F6
:10929000014881440144B1468DE31C47054563EA1A
:1092A000D700958F94C180C5DCC123A6050184C970
:1092B00001453244A24441018280D0433705004039
:1092C0007D1593181600718D63D70800A106AA9624
:1092D00005089C43D1B76373A4002A848504D5BFD5
:1092E0004E6F206D656D20746F20616C6C6F632014
:1092F0003078257820427974657320617420706F0E
:109300006F6C5F616464723D30782578210A0030AB
:1093100078256C78206F7574206F662072616E6797
:1093200065210A00488137290020832749E4AA845F
:109330002E843EC605459DCC3BEF0515B3E7B40032
:109340008D8B89CF1F05529411909780F26FE78023
:10935000206193053400F1991384C5FF280097D04C
:10936000F26FE78000EEA2852685C93DA24701ED98
:1093700031280545B247032749E4638EE70097D0BB
:10938000F26FE780A00519200145EDB73E8517E390
:10939000F26F6700E3314481054669B728801F04F6
:1093A000B4B004009F0500D2000008C0F5371C408F
:1093B0001F07B0B004001CC324805882B7290020C6
:1093C00083A749E42A892E843ECE854415C18DC1E8
:1093D000480097D0F26FE780C0E62C004A854D35F3
:1093E000AA84124585C097E0F26FE780602C85441F
:1093F000F24703A749E426856386E70297D0F26F18
:10940000E780C0FDA24744C81CC0B2475CC0C24749
:109410001CC4D2475CC4E2471CC897E0F26FE780E7
:109420002029F9B7548282806661696C20746F20AC
:1094300066726565206D656D6F72792C20706F6F37
:109440006C3D5B25705D2C206D656D3D5B25705D11
:109450000A00706F6F6C2073697A65203078257808
:109460002073686F756C6420626520616C69676E3B
:1094700065642077697468204F535F4D454D5F41A7
:109480004C49474E5F53495A450A00009F07BCB0FC
:1094900004000147DCC39CC30507A1073B1EF7205E
:1094A00082801F051E96119082803B7B055A85475E
:1094B000B397A70015813B0405013B050502F3B7EF
:1094C000473001458280BE8273B002BEDDBFBE82DE
:1094D00073B012BEFDB71F050009000282803B7BFE
:1094E000055A8547B397A70015813B0405013B0545
:1094F0000502F3A7473001458280BE8273A002BEF9
:10950000DDBFBE8273A012BEFDB71F0500090002B9
:1095100082801880AA873B74355A3BF53507014590
:10952000BBE3171A9917939627001D478D830D8F5C
:10953000FD171376F70F3BF707073E8513F7C601B4
:10954000BD4797E0F26FE780400B26364452606ECD
:109550007C00F32700BC3D473317D7001347F7FFC4
:10956000F98F3317D6005D8FBA82739002BC1480D6
:10957000F32610BC8520BE82739012BC0145C5BF86
:10958000F32620BC8128BE82739022BCC5BFF3267F
:1095900030BC8920BE82739032BCCDB7F32640BC6C
:1095A0001528BE82739042BCD1BFF32650BC1D204B
:1095B000BE82739052BCD9B7F32660BC2128BE820C
:1095C000739062BC65BFF32670BC2920BE82739085
:1095D00072BC6DB7B397E70093C7F7FFF58F3317EA
:1095E000E600D98F82801F050009000249B71F05D8
:1095F00005090002ADBF9F0744C20400694723ACC0
:10960000071223AE07120507B1073B1DF75AB7B77C
:1096100004001F072496119023AAE7FE8280504C75
:109620004943000000000000DC750400DE94119046
:10963000AA94119012951190A4750400A29411900F
:10964000AC750400C07504000145828028802A841E
:1096500097E0F26FE78040049F07481E002080C318
:1096600097E0F26FE780C0040145248048811F0421
:109670007CC604005E242A89AE84BBE237028D4793
:109680001EA0FD571CC49C442311240104C85CC0C7
:10969000EFF0AFCC1E205A2436201044AA851F05B7
:1096A000E29711909780F26FE780802B0048832823
:1096B000C408032844011C485844144450400C403A
:1096C000484C65201F051698119055208328C40723
:1096D000032884047C4403270408832644080326C3
:1096E00084080C4C285C51201F056998119041207A
:1096F00083284404032804067C503854745430589A
:109700006C5828409D201F05AA9811908D20832811
:109710004402032884025C5418585458105C4C5C72
:109720000850A1201F05EB981190912038487448EB
:10973000304C6C4C1F052E99119040811783F26FAD
:1097400067000322B7B7040083A7C708858B8DDBAA
:1097500097D0F26FE78080C919C1894715B785474F
:109760001EA0EFF02FBE08C439BF2AC08280178325
:10977000F26F6700E31E18809F077CC60400DE2797
:10978000BB9407019F07481E00209C4391C382970A
:1097900001A0E93DF5BF0F00F00FB717020023ACA1
:1097A00007C08280388044412A841F05789B11902D
:1097B0009780F26FE780C01AF93FA28526857D3534
:1097C00001A028802A8497E0F26FE780E0EC9F07F1
:1097D0004C1E002080C397E0F26FE78060ED0145EA
:1097E00024807461736B3A25730A746872645069DB
:1097F000643A307825780A747970653A307825783B
:109800000A6E657374436E743A25750A70686173E5
:10981000653A25750A006363617573653A3078258A
:10982000780A6D63617573653A307825780A6D74CE
:1098300076616C3A307825780A67703A3078257806
:109840000A6D7374617475733A307825780A6D65A2
:1098500070633A307825780A72613A307825780A50
:1098600073703A307825780A0074703A3078257829
:109870000A74303A307825780A74313A307825788D
:109880000A74323A307825780A73303A307825787D
:109890000A73313A307825780A61303A3078257881
:1098A0000A61313A307825780A0061323A307825F9
:1098B000780A61333A307825780A61343A3078256D
:1098C000780A61353A307825780A61363A30782559
:1098D000780A61373A307825780A73323A30782539
:1098E000780A73333A307825780A0073343A30783E
:1098F00025780A73353A307825780A73363A307805
:1099000025780A73373A307825780A73383A3078F0
:1099100025780A73393A307825780A7331303A302D
:109920007825780A7331313A307825780A00743313
:109930003A307825780A74343A307825780A7435C4
:109940003A307825780A74363A307825780A00005B
:10995000188097E0F26FE78020D401A0488032841D
:109960002E892E86AA849F05CACACACA22859770E4
:10997000F26FE780206B9F07CCCCCCCC130509EFAE
:1099800022951CC09F07020202021CC51307850016
:109990009306C5101C431F06010101011107B29770
:1099A0001CC3E319D7FE9F07807800001CC19F07E6
:1099B000C66E04005CC19F075099119023200510CA
:1099C00064D57CDD44800000000000000000000041
:1099D000732500349782EE8F9382824783A2020020
:1099E00082927321003489629382028073A00230D4
:1099F00083220111739032009302010987AD0200A6
:109A000007AD420087AC820007ACC20087AB020101
:109A100007AB420187AA820107AAC20187A90202F5
:109A200007A9420287A4820207A4C20287AF0203E9
:109A300007AF420387AE820307AEC20387A80204C2
:109A400007A8420487A7820407A7C20487A60205C5
:109A500007A6420587A5820507A5C20587A30206BA
:109A600007A3420687A2820607A2C20687A10207B1
:109A700007A1420787A0820707A0C207C2427390CE
:109A80000230D2427390123405610B06E17F4561CA
:109A90008B0FF1FF216173002030130000000100E3
:109AA0009732F36F9382C2BD0393C2006316030023
:109AB0001771EE8F130101550503239662003703DA
:109AC0000040B3736A0063840300C14231A83703C6
:109AD0000080B3736A0063840300C54231A0B702FB
:109AE0000080FD12B3F259001685F3250034970269
:109AF0000000938282C8829201A000000000000052
:109B0000930201010B96E27F9302010827A0B201A4
:109B100027A2A20127A4920127A6820127A87201E9
:109B200027AA620127AC520127AE420127A03203C7
:109B300027A2220327A4920227A682024111732A98
:109B400020FC52C0F32920344EC2732930344AC459
:109B50000EC6F324003026C87324103422CA12CC57
:109B60000ACE7310013491C111A01DBF1771EE8F81
:109B700013014169B1BDDDBC4F6F70733A4E4D4961
:089B80000A00000000000000D3
:109B880048802A8997C0EF6FE78020522A8419E419
:109B98004A85408017C3EF6F6700E3512285044070
:109BA8009710F36FE780603D11E5228597E0EF6F2E
:109BB800E780A05F2684E1BF37250400130585836D
:109BC800C1B718809F0714D3040088C30147814692
:109BD80001469F05BCA8040013051004EFC07FFDD3
:109BE8009F075476119083C5170413051004EFD00E
:109BF8000F801305100410806FC0FFFD1880130537
:109C08001004EFC01FFE81451305100410806FC0BB
:109C18003FFC18809F0714D30400C8C3014781463E
:109C280001469F05CCA8040013052004EFC07FF867
:109C38009F075476119083C5270413052004EFC0AD
:109C48001FFB1305200410806FC0FFF81880130550
:109C58002004EFC01FF981451305200410806FC050
:109C68003FF79F0710D30400239007009F070CD3EA
:109C7800040023A00700828068807C312A84AE8497
:109C880099C3FD177CB103290400131A0901135A5B
:109C98000A0152859770F26FE780C0C79E24AA898F
:109CA800231AF5088357250C85072311F50C8C40DA
:109CB8005285EFC0E74B1F063E000B00CA854A8558
:109CC8009770F06FE780A02583C7E90489E73D28EE
:109CD8008920014564809A2483D7490A998F03C74C
:109CE800B905A19FB3E7E70281EF83C7E9143B9366
:109CF800070183C75915BBF207074E85EFE0E164FA
:109D0800312001284E85EFF0F16FE1B74E856FC025
:109D1800575D08401773F26F670043AE0347651538
:109D2800BB76070FB7E718909387C7EC9B87E704C4
:109D38009C4382878547A30AF51482808947E5BF3B
:109D48008D47D5BF9147C5BF9547F5B79947E5B743
:109D58009D47D5B7A147C5B768821C412A849F048F
:109D68009C0404003EC49770F26FE780A09B482CC7
:109D78006D699770F26FE78060A3A247BB17050271
:109D88003EC670001385840755282A8421E1977000
:109D9800F26FE780A09901456482938904023EC866
:109DA80010084E8561282A847DD14E85224A97C0A5
:109DB800EF6FE78000301A2C54442A86D2851F059D
:109DC80034CC80299770F26FE780408902CA02CCB0
:109DD80002CE34001306A95D4C081385C4028D28F1
:109DE80013858403952013854404B9289770F26F6E
:109DF800E780C09348089700F36FE780000B08449A
:109E080097E0EF6FE780603A22859700F36FE7806D
:109E180020069720F06FE780209A9710F06FE78070
:109E280020691385040297C0EF6FE78080283B7A8A
:109E3800D50381450545EF50D156B1BF9305A95DBE
:109E480017C3EF6F6700C34834001306A95D4C08B9
:109E580017C3EF6F6700034181471F0708D8040045
:109E6800B306F7002380061A85073B9CF70DA30667
:109E7800071A82805880832905002A89AE841395A1
:109E8800090141819730F06FE780C0BD962490406A
:109E9800939509012A84C1811F0533EE802A9760B2
:109EA800F26FE780A07B9770F26FE780A087834707
:109EB80079004A3483554406B9CBFD15A19D97C056
:109EC800EF6FE78040A68357440685072312F40600
:109ED8009C403CD0854522859720F06FE78040F470
:109EE8008347E402BB93070122859720F06FE78040
:109EF80020D62285EFA091499770F26FE780008302
:109F080022859720F06FE780E0E0014554809C406F
:109F18003CD0938715002312F40697C0EF6FE780B3
:109F280080A04DBF28802E849770F26FE78000993B
:109F3800B717040083D76719370741599305C4FF3A
:109F48003E975E3560C1A19DDB17F7C0AEAF8EAFFF
:109F58002480688206062A8493140601B689139918
:109F680015009760F26FE780E07B22859730F06FED
:109F7800E78040AF8347E5022A84C18068413B936C
:109F880057018357E40503574406130A204EB38943
:109F980049031D8F219F8357C40583452405231436
:109FA800F1003305A702384C231134052695FD54DA
:109FB8002A979580658F3AC29760F26FE780005FB5
:109FC8001306050183552404684006069720F06FA0
:109FD800E780E0C431C13357450383572404AA9767
:109FE8002311F40492470581998F130710273375BD
:109FF800E50203578100E58F3EC26379A700FD178C
:10A00800E58F130717273EC22314E1008357810009
:10A018003385A7402314A10083562404035644061D
:10A028004C00938706FE2310F404B717040003D7E7
:10A0380067195E3422855B17F7C0B7074159BA978D
:10A048009E2B0357E405A1833307E640FD8BB387B6
:10A05800E7020347E406BA9713075002B3F7E7028B
:10A068002307F4069720F06FE780602812464E34E5
:10A0780003572404835681001F05349E812A976064
:10A08800F26FE780A05D92461C54A309040433F7DD
:10A09800260323A427016800D8CB1C4036CA4AC827
:10A0A8003EC683578100231CF10083574406231DB5
:10A0B800F1008547230EF1009760F26FE780007684
:10A0C8009760F26FE780806664823C5001562314E3
:10A0D8000100AA97A6979BC7C7CA3EC241BF3B04C7
:10A0E80005023B620502BB63050501458280130535
:10A0F800300482801305C0038280188097F0F16FC6
:10A10800E78020829720F26FE780C0841080176371
:10A11800F16F670043A418809760F26FE780004AE8
:10A12800E93F10801773F16F6700038A99E193057F
:10A1380000108D816FB07053B727040083A7478C38
:10A1480081469C439C5311C91307D00E9946630658
:10A15800E500954619A083A787FF91CBE39DB7FE3D
:10A16800014685453E851773F16F670043938280EA
:10A1780038811306F1009305E100AA840045EFD069
:10A18800D44C01C9814526859700F26FE780804B42
:10A19800348118508347F1001377070401EBEDDB96
:10A1A80026859700F26FE780E072DDB7F5F3CDBF43
:10A1B8007881004583477402444018503B95070254
:10A1C800936707201CD09710F26FE78080997481FD
:10A1D800936707401CD0BC38B42CF58F858B81C79A
:10A1E800936707601CD0A928C18B89C71C5093E7C7
:10A1F80007021CD0B120A18BA1CB22859700F26F5A
:10A20800E78080B569D51C50138A0401938A7401CC
:10A2180093E787001CD0D685528597F0F16FE780C9
:10A22800E04A2380A406930710086309F500BB7A67
:10A2380005823B77E5021C50DD9B1CD022850DA8CA
:10A24800BC38B82CF98F82801C5093F70704C5FFDF
:10A258008D472303F40245BF93072008630CF502DA
:10A2680093073008E315F5F61C502285C18B91C77A
:10A278009700F26FE78080A799BF97F0F16FE780AA
:10A28800603DB727040083A7478D2A8681459C43F4
:10A29800A52035BF228597F0F16FE780A03B1C50C1
:10A2A800AA89D68513D967005285134919001379ED
:10A2B800190097F0F16FE780203F372A04006319EF
:10A2C800A904EFD0D44615CDEFD0B4472AC691469D
:10A2D8007000C14526859730F26FE7800077C14648
:10A2E80026869945138589009720F26FE78060914B
:10A2F8001D208545112099B7884F17F3F16F670026
:10A30800A334D14526859730F26FE78040A4C1BFBA
:10A3180019208945B5BF83274A8D4E869C43828084
:10A328005884BB02064129473A8554842A8444410B
:10A338002E852E899770F26FE780C0D86DD59389E6
:10A34800240C13060004CE854A859770F26FE780C7
:10A3580060CB71D9930600044A86B6854E8597303E
:10A36800F26FE780806E1307100F5DFD9F07BE83B5
:10A37800605A3ED09F07DB0B37603ED29F0738A557
:10A38800F5AA3ED49F079183886C3ED602D802DA9C
:10A3980002DC02DEEFE0530E0A86CA859770F26F80
:10A3A800E780C0D1130600020147938624068A85F8
:10A3B8003305C1009730F26FE78000B91C50414760
:10A3C8001BA7E7F218D00D472303E4029396B700C2
:10A3D8000147E3CB06F493F7070499E7A68522859E
:10A3E8009700F26FE7802094A68522859700F26F88
:10A3F800E780008301470DBF28803284EFE093088F
:10A40800930600042A86B685228520801733F26FCA
:10A418006700A36348825C452A84C44B1C51A18B06
:10A4280089C79C3093E727009CB01C50C18B89C713
:10A438009C3093E717009CB0130560049760F26F97
:10A44800E780401E2A89484419462C0013058503D5
:10A4580002C4231601009770F26FE780A0BA01EDDD
:10A468009F05CBAA0E271F057E01B3009770F26FD8
:10A47800E780C0B544825044A1464A851306860346
:10A488009D285C449306E003268683C7E7041305EA
:10A498008900A303F90085209C3013F7070409E716
:10A4A800E207E18763D90702B717040083A7871675
:10A4B800A1CBC1453305B10097F0F16FE780C0E942
:10A4C8004147B306E1003A86930569024A859770C9
:10A4D800F26FE78020954844EF905437B72704007F
:10A4E80083A7478D4A8691459C43884F97F0F16F23
:10A4F800E780801541B7B6851733F26F6700E354DC
:10A50800C1460146B6853305D1009730F26FE78022
:10A51800A0CC7DB778802A8AAE84630C0512B72A4E
:10A52800040003A74A8DD2851C4323AE070A0843BB
:10A5380021059720F26FE780409403248A0005479D
:10A548005C448329440003A947011C5093F707047E
:10A5580091C32D472303E402C1E881446399090AA2
:10A56800834704021CD0638909004E859760F26F07
:10A57800E780C00A232204001C4499C713058400FD
:10A588009770F26FE78000B999E4D2852285970029
:10A59800F26FE78000A8A68552859700F26FE780E2
:10A5A800C0FB13058AFF9760F26FE78020079307C7
:10A5B800000F6380F40A83A74A8DA28588439720F9
:10A5C800F26FE780808051C51C5071777D17F98F35
:10A5D8001CD022859700F26FE780C0E12DC57080FE
:10A5E8001713F26F6700A3BD1F057E01B30026860F
:10A5F8009F050BAA0EE79770F26FE780A09D0145B3
:10A6080097F0F16FE78040FA3B96D405B9B7E309B4
:10A6180009F483441900A9D41C5093F7072099E73B
:10A628008347090093E707042300F9002285970070
:10A63800F26FE78080F783470900814493F7F7FBBF
:10A648002300F90031BF228570801703F26F67007D
:10A65800A3A37480988104459C50858B89E783C7A0
:10A668007402BB981702AA89268583AA440097001A
:10A67800F26FE78080882A84412AA9E79C50998351
:10A6880093C71700858BD69703C9C701630C0902C6
:10A6980009459760F26FE780E0F88946B68501467C
:10A6A8002A8B9730F26FE78020B35A85C1459720EF
:10A6B800F26FE780C06989465A863305D4002D2297
:10A6C80019C1912A948193771900ADCB9C50C18B05
:10A6D800B5E71945392A02C002C202C402C61020D1
:10A6E80005478A862A8ADA853A9597F0F26FE780D5
:10A6F800809CC1460A861305E402FD200122AD456F
:10A708001D45CD28930B35002A8A930500045E85E4
:10A718009720F26FE780A063014713061A008A8624
:10A72800DA855E8597F0F26FE780009EC128E928F8
:10A7380093E73700E92893E747001CB0937729008F
:10A74800BDC321457D202A8AC145050597F0F16FD3
:10A75800E78080C06520A145254569283727040082
:10A768008327478D99462A8A9C43B685090583C75E
:10A778002702A30FF5FE8327478D90437106B52066
:10A7880019C99F050BAA16CD1F057E01B300977046
:10A79800F26FE780A0839D20852893E7C70085286E
:10A7A80093E707041CB0137949006308090223AE34
:10A7B8000400C54529453D282A89C1455A8605050D
:10A7C80097F0F16FE78020B5CA851528352893E7FB
:10A7D8000701352893E707011CB035284E859700F7
:10A7E800F26FE7800005F9BDB6851733F26F670091
:10A7F800C325C54517F3F16F670083FCD28526850D
:10A8080017F3F16F6700C3F983C7EA058280238FC6
:10A81800FA041C3082805A851763F26F670003E0E0
:10A828009880B2846304051C2A229700F26FE7809F
:10A83800008A2A84630D05181C5193F7070463984E
:10A8480007185C45494503A9470171225230B70BE7
:10A85800B3002A8A9F05CBAA16FB1385EB179760CE
:10A86800F26FE78020774A859710F26FE780C0CBB8
:10A87800630C09108347190013F747006306071094
:10A88800858BB9C383460900130649003522814ADE
:10A898004DEDBE208965E9052310FA00C9465946E1
:10A8A8001F051A20CA4297B0F16FE7804095D285FC
:10A8B8003D22BD572303F40256851D2A2685908024
:10A8C8001763F26F670083D55C40DDEF2122AA8908
:10A8D800894601468520DE24A183A380F900DE2471
:10A8E8002380F900C52889460146AA8AA120130BAE
:10A8F800E902138544000147DA865686CE8597F02B
:10A90800F26FE78060804E85E5200946B305C900EF
:10A9180056859760F26FE780E06E15E103460900FF
:10A928000147DA86D68513052A0097E0F26FE7809B
:10A93800807885B7B6851733F26F6700E3899F057E
:10A94800CBAA1A1F1385EB172528528555205920A5
:10A95800BE2089652A841EA1ED05894659461F0532
:10A968001B202C4297B0F16FE7806089A28585286B
:10A978009F05CBAA1A4F112081B71F057E01B3008E
:10A988001763F26F670083645C4095CF1C50C18BDE
:10A9980099C79F05CBAA1A2CCD37814A7DB7814527
:10A9A800228597E0F16FE780C075C1462A86AA8A9A
:10A9B8002120E30005EE9480B68513052A0017339D
:10A9C800F26F670083089F05CBAA1A39F1B7814A4D
:10A9D800014AA5BF09451763F26F6700A3C42A8619
:10A9E800814601451763F26F6700C31F814AE9B5C5
:10A9F8001763F26F670083C213F535008280788091
:10AA080004452A899D45885083A944001375050487
:10AA180013351500050597F0F16FE78060DA83C7F5
:10AA280074022A84BB8A37029760F26FE780002598
:10AA380008B0DC44AA8A2685BC3B93F70703B337E2
:10AA4800F0003CA097F0F16FE78020768347D900AB
:10AA58002A8AE98FA306F9003CB09760F26FE78075
:10AA680060BA3B1505019C5093F7070499C3034A44
:10AA7800D900A30144018347C900858B81CBBB93CF
:10AA88000A033C2081E73C30ED9B3CB0B72704002B
:10AA980083A7478D9C43DC2B5CA08347D900858B1B
:10AAA80089E783C77402BB9407029C5093F7070495
:10AAB800A5CB8D475CB07CA0930500081385E90100
:10AAC8009720F26FE780A0289C509D4622869983A4
:10AAD80093C71700858BB387D702B68513850701FF
:10AAE8004E959730F26FE78040F619C99F050BAA7B
:10AAF8001ABE1F057E01B3009760F26FE780004D14
:10AB0800A2852685708017F3F16F670063C999469F
:10AB18000146B68505059720F26FE780E06BBDB763
:10AB280083C759018D8B5CB083C769018D8B61B771
:10AB380068812E89328A2A84B031B709B3009F050B
:10AB4800CBAA1AE1852822859700F26FE780808AD0
:10AB5800AA843DC5A307010052309F05CBAA1AE677
:10AB68009128D0349F05CBAA1AEF1F057E01B300A8
:10AB7800A120228597F0F16FE78040C65286CA85EA
:10AB8800268597F0F16FE780A0D6A307A10005E11D
:10AB98001C50374708002685D98F1CD097F0F16FD5
:10ABA800E780606326859700F26FE780A00503457C
:10ABB800F10064811385E9171763F26F6700834119
:10ABC800034639009305F10022859700F26FE7806C
:10ABD8004084AA849F05CBAA1AEA1385E9179760CF
:10ABE800F26FE780A03EB5FC8347F1001307E00E43
:10ABF800E39FE7FAA30701005DBF00000000000023
:10AC200028802A8401C9EFF02FFE09C522852080E3
:10AC30006F30A0062480B7B70400AA8503A5070BD0
:10AC40006F50F00FB7B70400AA8503A5070B6F502C
:10AC500010170F00F00F828005458280397106CEF3
:10AC600022CC2ED232D436D63AD83EDA42DC46DE78
:10AC700009C92A84D53711C54C1022852EC6EF404C
:10AC8000F067F24062442161828001C508416F4053
:10AC9000B0227D55828048802A84AE8432853689F0
:10ACA00001CC3B0206FFEF508066AA8608404A8628
:10ACB000A68540806F4030137D5544801880EF504A
:10ACC000704D0F00F00F14801880EF50704D0F0082
:10ACD000F00F14801880EF50704D0F00F00F1480AB
:10ACE0001880EF40102A19E10F00F00F14806F4018
:10ACF000B07F6F40907B09C50841FD556F40B0356E
:10AD00007D55828028802A8411C9BB8205FF2E854B
:10AD10005920AA85084020806F40F0337D5524805B
:10AD200001C508416F40B046828028802A8419C935
:10AD30003B8305FF2E85EF50805DAA85084020806B
:10AD40006F40F07E7D55248001C508416F50E008BA
:10AD500082806F5060536F50A05482806F50A05D0E
:10AD600011C50A2117730D90670043ED7D55828050
:10AD7000188011CD0A2197700D90E78080EC9F0715
:10AD80000D0300026307F50001E5054511A07D559F
:10AD900014800145F5BF6F5080570145828068815E
:10ADA0009F07C8C60400DB97A706BC33A5EF2A8916
:10ADB0008041EF103000AA892E8A8144B357940055
:10ADC000858B89CF93F5F40FA92009E9B247BB938E
:10ADD0000701B397970093C7F7FF7D8C8504BB9756
:10ADE000F40CA6853D2001E5B2473B8C0701EF102E
:10ADF000607CB30735413335F500B3854541639633
:10AE0000A5001307803E637EF7001F051313008023
:10AE100001A870004A8502C665A31F0511130080B2
:10AE2000648141FC0145EDBF88829F07C8C60400CC
:10AE300002C2DB97A7062313B10002C4A381070057
:10AE40003284AA8A500089456928AA8405E5032925
:10AE50000400032A440002C602C8814963EE490186
:10AE60009307004002CA3ECC2C088D28AA840146D4
:10AE70008D45BD202685848202C00A8695458D2099
:10AE80000247B3073A4102CA02CE6374F7043ACCD0
:10AE9000639509001C34A30EF1005008A1458920D8
:10AEA00001E9930700083EC889473EC60C083D20CB
:10AEB000B307390156853ECA0D252A8B4C085685A5
:10AEC0006929AA84DA855685192DD5F0E247BE99FD
:10AED00071B73ECC1C24230EF1005DBF5685C1B571
:10AEE0005685F9A941BF88829F07C8C6040002C2DF
:10AEF000DB97A7062313B10002C4A38107003284A5
:10AF0000AA8A500081456128AA8405E902C602C8C0
:10AF100002C003290400032A44000A869145BD2883
:10AF200082478149B5E39307002002CA3ECC2C0832
:10AF3000B928AA84014685459520268584829307F1
:10AF400000043EC895473EC60C089120AA847DF1B6
:10AF50000247B3073A4102CE637DF7023ACC6395CC
:10AF600009001C34A30EF100B307390156853ECA0F
:10AF7000AD232A8B4C085685A12EAA84DA855685E6
:10AF8000B92BCDF8E247BE99E3EB49FB69BF568583
:10AF900039B53ECC1C24230EF100D1B756850DA146
:10AFA0005881AE89B2852A89B28497500D90E78086
:10AFB000800F2A8415ED4A8597500D90E780000A8E
:10AFC0002A841DE59C4002C63EC2DC409F04D0C6D8
:10AFD00004009B8424053EC4268585472306F10092
:10AFE000193B5000CE854A85FD3D2A8426850D3BC0
:10AFF000228554815881AE89B2852A89328497503E
:10B000000D90E7804007AA841DE51C4402C63EC29D
:10B010005C441F04D0C604001B0424053EC42285E2
:10B0200085472306F100C1395000CE854A85ED3BA6
:10B03000AA842285F5312685548168812E8AB285BD
:10B04000AA84B28997500D90E780E0052A841DED0F
:10B05000CE85268597500D90E780E0012A841DE576
:10B06000268597500D90E78060FF2A8405E11F092F
:10B07000D0C604001B0999044A85B5394E86D2858D
:10B080002685393F2A8409C54A8559392285648134
:10B090009F07000800006C0026853EC602C40133ED
:10B0A0004E86D2852685B9372A84F9BF014582802C
:10B0B0009F0768CA04001B85A7041C410145BC53B7
:10B0C0008583858B9CC1828085479CC10145828098
:10B0D00028802E8425468945B92608C0014524804C
:10B0E0007880C441AA8AA9C42E84A685A12A416970
:10B0F000014A7D19630209049F0968CA04009B89FB
:10B10000590583A70900BC538583858B91CF1335DF
:10B110001A001424050A0C343386444113361600F1
:10B12000052E83A70900C8CFE3659AFC014574800A
:10B130001F0510130080E5BF1F0513130080C5BF56
:10B140006881AA892E85B28570005D282A8421C174
:10B15000139A29001F0968CA0400B3042A01984001
:10B160008346F1004E855C43858AF99B5CC31C4392
:10B17000BD9B9BA7D7081CC38347E10099EB15260D
:10B18000B30749019C43D84313671700D8C32285EE
:10B190006481352694408357C100984A13F6F73FDF
:10B1A000937707C0D18F9CCAE1BF38802E84AE212F
:10B1B0000946AA84713719C5268529221C201CB589
:10B1C000014534801F0507130080E5BF38802E84B9
:10B1D000AE210546AA84AD3719C52685E5201C2079
:10B1E0001CA5014534801F0507130080E5BF0145FC
:10B1F000828000000D000E0010000E0016000E00F0
:10B200001F07C01E00200148BA8716236365D502B8
:10B21000362363E2A6029B870707F82381466D8FDA
:10B220006310B7021375F53F0AA2D823854638A2EA
:10B23000DC333CB231A0050821073B14F8088146F5
:10B24000368582809F0768CA04001B85A7041841C1
:10B250003C4B91E18545FD15819D93F707F0CD8F1E
:10B260003CCB828028802E84194689456D2A08C0EF
:10B27000014524809F075CCA04005B95A70A7A21D8
:10B280003621814763F4E600B307D7409CC10145EE
:10B2900082809F075CCA04005B95A70A5E218583B4
:10B2A0009CC191E385479CC10145828085479CC133
:10B2B0000145828028802E8425468945AD2208C01C
